:100000000C945C000C946E000C946E000C946E00CA
:100010000C946E000C946E000C946E000C946E00A8
:100020000C946E000C946E000C946E000C941702ED
:100030000C946E000C946E000C946E000C946E0088
:100040000C94CD010C946E000C946E000C946E0018
:100050000C946E000C946E000C946E000C946E0068
:100060000C946E000C946E00000000080002010069
:100070000003040700000000000000000000000072
:10008000250028002B0000000000240027002A0083
:10009000040404040404040402020202020203032E
:1000A0000303030301020408102040800102040836
:1000B000102001020408102011241FBECFEFD8E049
:1000C000DEBFCDBF21E0A0E0B1E001C01D92AF30A6
:1000D000B207E1F70E9442020C94C2030C940000A4
:1000E00090E0FC01EC55FF4F249180579F4FFC019D
:1000F0008491882399F090E0880F991FFC01EA57BA
:10010000FF4FA591B491FC01E458FF4F8591949164
:100110008FB7F894EC91E22BEC938FBF089590E0A9
:10012000FC01E859FF4F2491FC01EC55FF4F34913D
:10013000FC01E057FF4FE491EE23C9F0222339F090
:10014000233001F1A8F4213019F1223029F1F0E037
:10015000EE0FFF1FE458FF4FA591B4918FB7F894AD
:10016000EC91611126C030953E233C938FBF0895DA
:100170002730A9F02830C9F0243049F78091800059
:100180008F7D03C0809180008F7780938000DFCFC8
:1001900084B58F7784BDDBCF84B58F7DFBCF809115
:1001A000B0008F778093B000D2CF8091B0008F7D68
:1001B000F9CF3E2BDACF3FB7F89480910B019091A5
:1001C0000C01A0910D01B0910E0126B5A89B05C0B0
:1001D0002F3F19F00196A11DB11D3FBFBA2FA92FC6
:1001E000982F8827BC01CD01620F711D811D911DC3
:1001F00042E0660F771F881F991F4A95D1F708952F
:100200008F929F92AF92BF92CF92DF92EF92FF9226
:100210004B015C010E94DB006B017C010E94DB0052
:100220006C197D098E099F09683E7340810591050F
:10023000A8F321E0821A9108A108B10888EEC80E3F
:1002400083E0D81EE11CF11C81149104A104B104C7
:1002500029F7FF90EF90DF90CF90BF90AF909F90E5
:100260008F900895CF93DF93EC0160E083E00E94CC
:100270008F00C130D105B1F561E084E00E948F00AC
:1002800060E082E00E948F0060E086E00E948F00C4
:10029000C330D10569F561E087E00E948F0060E01E
:1002A00085E00E948F0060E089E00E948F00C530E9
:1002B000D10521F561E08AE00E948F0060E088E0CE
:1002C0000E948F0060E08CE00E948F002797E1F48D
:1002D00061E08DE00E948F0060E08BE0DF91CF91C4
:1002E0000C948F0060E084E00E948F0061E0C9CF31
:1002F00060E087E00E948F0061E0D2CF60E08AE09A
:100300000E948F0061E0DBCF60E08DE00E948F00F3
:1003100061E0E3CFCF93DF93EC0161E082E00E94E4
:100320008F0061E0209709F060E083E00E948F0079
:1003300060E084E00E948F0061E085E00E948F0011
:1003400061E0C230D10509F060E086E00E948F00D4
:1003500060E087E00E948F0061E088E00E948F00EB
:1003600061E0C430D10509F060E089E00E948F00AF
:1003700060E08AE00E948F0061E08BE00E948F00C5
:1003800061E0269709F060E08CE00E948F0060E059
:100390008DE0DF91CF910C948F001F920F920FB6DA
:1003A0000F9211242F933F938F939F93AF93BF93FB
:1003B0008091070190910801A0910901B0910A0173
:1003C0003091060123E0230F2D3758F50196A11D2A
:1003D000B11D209306018093070190930801A0931B
:1003E0000901B0930A0180910B0190910C01A09139
:1003F0000D01B0910E010196A11DB11D80930B015D
:1004000090930C01A0930D01B0930E01BF91AF9199
:100410009F918F913F912F910F900FBE0F901F9042
:10042000189526E8230F0296A11DB11DD2CF1F9269
:100430000F920FB60F9211242F938F939F93809159
:100440000001909101010196883E23E0920760F43B
:1004500090930101809300019F918F912F910F90B4
:100460000FBE0F901F90189510920101109200017D
:100470008091020190910301019790930301809371
:100480000201EACF789484B5826084BD84B581602E
:1004900084BD85B5826085BD85B5816085BD80914F
:1004A0006E00816080936E001092810080918100C7
:1004B00082608093810080918100816080938100BF
:1004C000809180008160809380008091B100846081
:1004D0008093B1008091B00081608093B0008091E2
:1004E0007A00846080937A0080917A0082608093A1
:1004F0007A0080917A00816080937A0080917A00FE
:10050000806880937A001092C10082E00E9470009F
:1005100083E00E94700084E00E94700085E00E94E9
:10052000700086E00E94700087E00E94700088E002
:100530000E94700089E00E9470008AE00E947000B2
:100540008BE00E9470008CE00E9470008DE00E94A1
:100550007000F89410928000109281001092850033
:10056000109284008FEC97E090938900809388002C
:1005700080918100886080938100809181008260F9
:100580008093810080916F00826080936F007894E7
:1005900081E090E090930301809302018091040137
:1005A000909105010E948A0164E670E080E090E08D
:1005B0000E94000104E010E0C1E0D0E032E0232E10
:1005C000312C46E0E42EF12C53E0452E512C68E00E
:1005D000662E712C8AE0C82ED12C97E0A92EB12C62
:1005E00020E0822E20E0922E80910401909105015E
:1005F000892B91F48091020190910301892B61F480
:100600001093030100930201D0930501C0930401EC
:1006100081E090E00E9432018091040190910501F7
:100620008130910591F42091020130910301232B37
:1006300061F49093030180930201309205012092AE
:10064000040182E090E00E948A018091040190916F
:100650000501029791F48091020190910301892B89
:1006600061F4F0920301E092020150920501409280
:10067000040183E090E00E94320180910401909196
:100680000501039791F48091020190910301892B58
:1006900061F4D0930301C09302011093050100930C
:1006A000040184E090E00E948A018091040190910D
:1006B0000501049791F48091020190910301892B27
:1006C00061F4709203016092020185E090E09093E2
:1006D0000501809304010E943201809104019091F0
:1006E0000501059791F48091020190910301892BF6
:1006F00061F4D0930301C0930201F0920501E092EE
:10070000040186E090E00E948A01809104019091AA
:100710000501069791F48091020190910301892BC4
:1007200061F4D0920301C0920201B0920501A0923F
:10073000040187E090E00E943201809104019091D1
:100740000501079791F48091020190910301892B93
:1007500061F4D0930301C09302011092050110923D
:10076000040190E080E00E948A016AE070E080E08D
:1007700090E00E9400018114910409F435CF0E9499
:08078000000028CFF894FFCF20
:00000001FF
