:100000000C9461000C9473000C9473000C947300B6
:100010000C9473000C9473000C9473000C94730094
:100020000C9473000C9473000C9473000C94730084
:100030000C9473000C9473000C9473000C94730074
:100040000C946B010C9473000C9473000C9473006B
:100050000C9473000C9473000C9473000C94730054
:100060000C9473000C947300000000002300260021
:10007000290000000008000201000003040700003E
:1000800000000000000000000000250028002B00F8
:1000900000000000240027002A00040404040404D3
:1000A0000404020202020202030303030303010227
:1000B00004081020408001020408102001020408F6
:1000C000102011241FBECFEFD8E0DEBFCDBF21E04E
:1000D000A0E0B1E001C01D92AB30B207E1F70E9491
:1000E000B5010C9435030C94000090E0FC01E2553E
:1000F000FF4F249186569F4FFC018491882399F0ED
:1001000090E0880F991FFC01E057FF4FA591B49133
:10011000FC01EA57FF4F859194918FB7F894EC91C9
:10012000E22BEC938FBF0895833081F028F4813067
:1001300099F08230A9F008958730A9F08830C9F08D
:100140008430B1F4809180008F7D03C08091800065
:100150008F7780938000089584B58F7784BD08954C
:1001600084B58F7DFBCF8091B0008F778093B000F6
:1001700008958091B0008F7DF9CFCF93DF93282F22
:1001800030E0F901EE58FF4F8491F901E255FF4F3D
:10019000D491F901E656FF4FC491CC23A1F081110F
:1001A0000E949400EC2FF0E0EE0FFF1FE859FF4F84
:1001B000A591B491EC91ED2381E090E009F480E009
:1001C000DF91CF91089580E090E0FACF1F93CF9315
:1001D000DF93282F30E0F901EE58FF4F8491F901A9
:1001E000E255FF4FD491F901E656FF4FC491CC235D
:1001F000A9F0162F81110E949400EC2FF0E0EE0F71
:10020000FF1FEA57FF4FA591B4918FB7F894EC9177
:10021000111108C0D095DE23DC938FBFDF91CF9101
:100220001F910895DE2BF8CF3FB7F8948091070116
:1002300090910801A0910901B0910A0126B5A89BEF
:1002400005C02F3F19F00196A11DB11D3FBFBA2F68
:10025000A92F982F8827BC01CD01620F711D811D28
:10026000911D42E0660F771F881F991F4A95D1F7AD
:1002700008958F929F92AF92BF92CF92DF92EF92AA
:10028000FF924B015C010E9414016B017C010E94F2
:1002900014016C197D098E099F09683E7340810520
:1002A0009105A8F321E0821A9108A108B10888EE0F
:1002B000C80E83E0D81EE11CF11C81149104A10436
:1002C000B10429F7FF90EF90DF90CF90BF90AF90EF
:1002D0009F908F9008951F920F920FB60F92112446
:1002E0002F933F938F939F93AF93BF93809103017D
:1002F00090910401A0910501B09106013091020195
:1003000023E0230F2D3758F50196A11DB11D209331
:1003100002018093030190930401A0930501B0931F
:1003200006018091070190910801A0910901B09107
:100330000A010196A11DB11D809307019093080148
:10034000A0930901B0930A01BF91AF919F918F9142
:100350003F912F910F900FBE0F901F90189526E898
:10036000230F0296A11DB11DD2CF789484B582606F
:1003700084BD84B5816084BD85B5826085BD85B549
:10038000816085BD80916E00816080936E001092C7
:100390008100809181008260809381008091810042
:1003A00081608093810080918000816080938000D3
:1003B0008091B10084608093B1008091B000816031
:1003C0008093B00080917A00846080937A0080915D
:1003D0007A00826080937A0080917A0081608093B5
:1003E0007A0080917A00806880937A001092C10030
:1003F00082E00E94750083E00E94750084E00E9404
:10040000750085E00E94750086E00E94750087E017
:100410000E94750088E00E94750089E00E947500C6
:100420008AE00E9475008BE00E9475008CE00E94BB
:1004300075008DE00E94750000E010E081E00E94F0
:10044000BD00EC01909301018093000180E00E94C7
:10045000BD00CD2B09F4E8C061E0892B09F4C6C0CA
:100460008CE00E94E60061E083E00E94E60061E02B
:1004700085E00E94E60061E088E00E94E60068EE08
:1004800073E080E090E00E94390160E08CE00E941F
:10049000E60060E083E00E94E60060E082E00E9407
:1004A000E60061E08BE00E94E60061E084E00E94EB
:1004B000E60068EB7BE080E090E00E94390160E0BC
:1004C00084E00E94E60060E085E00E94E60061E0D2
:1004D00083E00E94E60061E086E00E94E60068EEAC
:1004E00073E080E090E00E94390161E082E00E94C8
:1004F000E60060E083E00E94E60060E086E00E94A3
:10050000E60061E087E00E94E60068EB7BE080E0C7
:1005100090E00E94390160E087E00E94E60060E020
:1005200088E00E94E60061E086E00E94E60061E06B
:1005300089E00E94E60068EE73E080E090E00E94AF
:10054000390161E085E00E94E60060E086E00E94FB
:10055000E60060E089E00E94E60061E08AE00E9437
:10056000E60068EB7BE080E090E00E94390160E00B
:100570008AE00E94E60060E08BE00E94E60061E015
:1005800089E00E94E60061E08CE00E94E60068EEEF
:1005900073E080E090E00E94390161E088E00E9411
:1005A000E60060E089E00E94E60060E08CE00E94E6
:1005B000E60061E08DE00E94E60068EB7BE080E011
:1005C00090E00E94390160E08DE00E94E600C0E00A
:1005D00060E08C2F0E94E600CF5FCD30C9F7011597
:1005E000110509F42BCF0E94000028CF84E00E945F
:1005F000E60061E085E00E94E60061E08AE00E949A
:10060000E60061E08BE00E94E60068E873E180E0CC
:1006100090E00E943901C0E060E08C2F0E94E6006B
:10062000CF5FCD30C9F7DBCF892BC9F261E082E023
:100630000E94E60061E087E00E94E60061E088E059
:100640000E94E60061E08DE00E94E60068E873E148
:1006500080E090E00E943901C0E060E08C2F0E94B1
:0E066000E600CF5FCD30C9F7BACFF894FFCFD8
:00000001FF
