:100000000C9462000C948A000C948A000C948A0070
:100010000C948A000C948A000C948A000C948A0038
:100020000C948A000C948A000C948A000C948A0028
:100030000C948A000C948A000C948A000C948A0018
:100040000C94F1030C948A000C948A000C948A009E
:100050000C948A000C948A000C948A000C948A00F8
:100060000C948A000C948A000000000024002700F1
:100070002A0000000000250028002B0000000000DE
:1000800023002600290004040404040404040202DA
:100090000202020203030303030301020408102007
:1000A0004080010204081020010204081020000012
:1000B0000008000201000003040700000000000027
:1000C00000003B0611241FBECFEFD8E0DEBFCDBF3E
:1000D00011E0A0E0B1E0E6E7FDE002C005900D927E
:1000E000A636B107D9F721E0A6E6B1E001C01D921E
:1000F000AB3FB207E1F710E0C2E6D0E004C02197C1
:10010000FE010E94B306C136D107C9F70E943B0425
:100110000C94B9060C94000096E0899FD00111243C
:10012000AC58BE4F90967C936E935F9791E09196FA
:100130009C939197E091E101F091E2019091E001AF
:10014000992339F0309751F0811108C080919001C6
:100150000994309719F05C968C91FACF0895CF925C
:10016000DF92EF92FF920F931F9396E0899FF00129
:100170001124EC58FE4F11A2278D30A121303105FA
:1001800051F178F02230310509F451C023303105A6
:1001900009F452C01F910F91FF90EF90DF90CF9024
:1001A00008956623B9F361E070E00E948C002FB7D8
:1001B000F8948091700190917101A0917201B091B9
:1001C00073012FBF8093CC019093CD01A093CE01FA
:1001D000B093CF01DFCF9FB7F894C0907001D0905B
:1001E0007101E0907201F09073019FBF0091CC010A
:1001F0001091CD012091CE013091CF01C01AD10ACA
:10020000E20AF30A0091DE011091DF0130E020E004
:100210000C151D052E053F0550F462E070E01F919E
:100220000F91FF90EF90DF90CF900C948C006111B4
:10023000B1CF63E070E0F3CF70E060E0F0CF8330E7
:1002400081F028F4813099F08230A9F00895873048
:10025000A9F08830C9F08430B1F4809180008F7D9E
:1002600003C0809180008F7780938000089584B5CB
:100270008F7784BD089584B58F7DFBCF8091B000CA
:100280008F778093B00008958091B0008F7DF9CF73
:10029000CF93DF93282F30E0F901E255FF4F84918F
:1002A000F901E656FF4FD491F901EA57FF4FC49187
:1002B000CC23A1F081110E941F01EC2FF0E0EE0F82
:1002C000FF1FE458FF4FA591B491EC91ED2381E01D
:1002D00090E009F480E0DF91CF91089580E090E014
:1002E000FACF1F93CF93DF93282F30E0F901E25527
:1002F000FF4F8491F901E656FF4FD491F901EA5777
:10030000FF4FC491CC23A9F0162F81110E941F0129
:10031000EC2FF0E0EE0FFF1FEE58FF4FA591B491C8
:100320008FB7F894EC91111108C0D095DE23DC93BF
:100330008FBFDF91CF911F910895DE2BF8CFCF9320
:10034000DF9390E0FC01E656FF4F24918A579F4FC0
:10035000FC0184918823C9F090E0880F991FFC016B
:10036000E859FF4FA591B491FC01EE58FF4FC5919C
:10037000D49161110DC09FB7F8948C912095822380
:100380008C938881282328839FBFDF91CF91089584
:10039000623051F49FB7F8943C91822F809583236B
:1003A0008C93E8812E2BEFCF8FB7F894EC912E2B06
:1003B0002C938FBFEACF3FB7F89480916C01909156
:1003C0006D01A0916E01B0916F0126B5A89B05C08B
:1003D0002F3F19F00196A11DB11D3FBFBA2FA92FC4
:1003E000982F8827BC01CD01620F711D811D911DC1
:1003F00042E0660F771F881F991F4A95D1F708952D
:100400008F929F92AF92BF92CF92DF92EF92FF9224
:100410004B015C010E94DB016B017C010E94DB014E
:100420006C197D098E099F09683E7340810591050D
:10043000A8F321E0821A9108A108B10888EEC80E3D
:1004400083E0D81EE11CF11C81149104A104B104C5
:1004500029F7FF90EF90DF90CF90BF90AF909F90E3
:100460008F900895862F642F0C949F01862F642F00
:100470000C947101862F0C944801AF92BF92CF92D9
:10048000DF92EF92FF920F931F93CF93DF936C0154
:100490007B018B01040F151FEB015E01AE18BF0835
:1004A000C017D10759F06991D601ED91FC910190E7
:1004B000F081E02DC6010995892B79F7C501DF91FF
:1004C000CF911F910F91FF90EF90DF90CF90BF9051
:1004D000AF900895089590E080E00895FC010190A8
:1004E0000020E9F73197AF01481B590BBC0183EE9F
:1004F00091E00C943D02CF93DF93EC0160E08E819C
:100500000E94710161E08E810E94710160E08E8124
:100510000E9471018BE891E00197F1F7DF91CF9193
:100520000895CF92DF92EF92FF920F931F93CF9394
:10053000DF936C017C0187E0E80EF11CD0E0C0E0A5
:10054000062F10E0B8010C2E02C0759567950A942D
:10055000E2F76170F70181917F010E94710121969C
:10056000C430D10579F7C601DF91CF911F910F916A
:10057000FF90EF90DF90CF900C947B02CF92DF92B0
:10058000EF92FF920F931F93CF93DF93EC01F62E20
:10059000642F8C810E9471018D818F3F19F060E082
:1005A0000E9471010F2D10E08F8584FF25C06E0120
:1005B00087E0C80ED11CF12CE12CB8010E2C02C032
:1005C000759567950A94E2F76170F60181916F0164
:1005D0000E947101FFEFEF1AFF0A88E0E816F104AC
:1005E00061F7CE01DF91CF911F910F91FF90EF90B6
:1005F000DF90CF900C947B02B80184E075956795ED
:100600008A95E1F7CE010E9491026F2DCE01DF9114
:10061000CF911F910F91FF90EF90DF90CF900C94AE
:10062000910240E0682F83EE91E00C94BE02CF93DC
:10063000DF93823029F49091F20198609093F20157
:100640008093F6011092F70180E48093F80180E135
:100650008093F90180E58093FA0161E08091E701E0
:100660000E949F018091E8018F3F19F061E00E9494
:100670009F0161E08091E9010E949F01C3EED1E0FA
:100680009E01235E31408091F20184FD0BC084E025
:1006900090E021962817390744F461E08E810E948A
:1006A0009F01EECF88E090E0F4CF8BE39DE00197CF
:1006B000F1F760E08091E7010E94710160E08091B4
:1006C000E9010E9471018091E8018F3F19F060E01B
:1006D0000E9471018091F20184FD39C063E083EED4
:1006E00091E00E949102CBE4D6E4CE010197F1F7AC
:1006F00063E083EE91E00E9491022197F1F763E0BD
:1007000083EE91E00E94910283E592E00197F1F778
:1007100062E083EE91E00E9491028091F20180629A
:100720000E94110384E08093F3018CE00E94110386
:1007300081E00E9411038BE39FE10197F1F782E0D2
:100740008093F40186E0DF91CF910C9411038062D5
:100750000E9411038BE496E40197F1F78091F20176
:1007600080620E94110383E592E00197F1F7809186
:10077000F20180620E941103D0CF81E00E94110338
:100780008BE39FE10197F1F789E291E00E946E020D
:10079000E091F601E23040F4E150F0E0ED51FE4F1F
:1007A000848980680C941103E1E0F7CF60E087E072
:1007B0000E9471010E94BD0388E391E00E946E02D5
:1007C0006CED75E080E090E00E9400020E94BD03A5
:1007D00010926A01089541E00E94BE0281E090E01B
:1007E00008951F920F920FB60F9211242F933F93EB
:1007F0008F939F93AF93BF938091700190917101FC
:10080000A0917201B091730130916B0123E0230F2D
:100810002D3758F50196A11DB11D20936B018093D2
:10082000700190937101A0937201B0937301809154
:100830006C0190916D01A0916E01B0916F010196D4
:10084000A11DB11D80936C0190936D01A0936E0169
:10085000B0936F01BF91AF919F918F913F912F9175
:100860000F900FBE0F901F90189526E8230F029649
:10087000A11DB11DD2CF789484B5826084BD84B5AA
:10088000816084BD85B5826085BD85B5816085BD8B
:1008900080916E00816080936E0010928100809143
:1008A00081008260809381008091810081608093CB
:1008B0008100809180008160809380008091B100F0
:1008C00084608093B1008091B00081608093B0001B
:1008D00080917A00846080937A0080917A008260AF
:1008E00080937A0080917A00816080937A00809171
:1008F0007A00806880937A001092C10061E087E0FE
:100900000E949F0182E00E94170389E291E00E9409
:100910006E02E091F601E23008F057C0E150F0E0DD
:10092000ED51FE4F848980680E9411038091F3018C
:10093000982F92609093F3018A600E94110360E007
:1009400087E00E947101812C912C540183944424EE
:100950004A94542C50E0652E50E0752E51E050938F
:10096000E0018FB7F894409170015091710160914E
:100970007201709173018FBF8091D0019091D1016C
:10098000A091D201B091D301481B590B6A0B7B0B8C
:100990008091DC019091DD01B0E0A0E08417950723
:1009A000A607B70708F016C1C0E08091DA01C817A2
:1009B00070F4E091D601F091D701EC0FF11D62E0E7
:1009C00080810E949F01CF5FF0CFE1E0A8CF312C62
:1009D0008091DB01381608F05FC0032D10E0E09134
:1009E000D801F091D901E00FF11F61E080810E94F0
:1009F0009F01E091D801F091D901E00FF11F60E073
:100A000080810E947101D501C401032C04C0880FAC
:100A1000991FAA1FBB1F0A94D2F76C017C01E094B6
:100A2000F094212C8091DA012816F8F4C22DD0E040
:100A3000E091D601F091D701EC0FFD1F80810E945B
:100A400048012496CC0FDD1FCC58DE4F892B41F492
:100A5000888199818C299D29998388832394E2CF69
:100A6000888199818E219F21F7CFE091D801F09163
:100A7000D901E00FF11F61E080810E947101809136
:100A8000D8019091D901080F191F60E0F801808109
:100A90000E949F0133949CCF04E711E0E8018F8D01
:100AA00098A1892B21F41C8E5E8E4D8E19A226965C
:100AB00080EB91E08C179D0791F7D12C8091DA01A2
:100AC000D81608F053C0C12CED2CF12CEE0CFF1CF5
:100AD000F701E458FE4F7F012091DB01C21608F0B8
:100AE00043C0F701608171810C2C02C07695679537
:100AF0000A94E2F7D29E900111242C0D311DE4E7F7
:100B0000F1E080E0458D568D2417350709F4B1C01A
:100B10008F5F36968A30B1F760FF24C0E4E7F1E0DA
:100B200090E080E0448D411118C0E091D401F09133
:100B3000D501E20FF31F408156E0589FF001599F05
:100B4000F00D1124EC58FE4F448F368F258F10A2E4
:100B5000178E61E00E94AF0005C0019636968A307C
:100B6000910501F7C394B8CFD394A8CF80E0F801E2
:100B700091A19111892F0A5F1F4F0C171D07B9F71B
:100B80009FB7F8944091700150917101609172018A
:100B9000709173019FBF4093D0015093D101609336
:100BA000D2017093D3018823A9F080919501882305
:100BB00089F08091930190919401019759F4C0912B
:100BC0009001C1110AC06114710409F4C7CE0E94DA
:100BD0000000C4CE1092E001F6CF80916A0184300B
:100BE000ACF4CA32A9F0C332C1F084E491E00E94AF
:100BF0006E0280916A01E82F082E000CFF0BEA5963
:100C0000FE4FC0838F5F80936A01DDCFCA3219F433
:100C10000E94D603D8CFC332B1F6809166018133EA
:100C2000E9F4809167018233C9F4809168018333CC
:100C3000A9F480916901843389F40E94BD0386E49C
:100C400091E00E946E0261E087E00E94710168EB12
:100C50007BE080E090E00E940002DACF0E94BD03BA
:100C600086E591E00E946E0264EF71E080E090E022
:100C7000F2CF61706FCF1092E6011092E50181E230
:100C800091E09093E4018093E3018DE08093E7018C
:100C90008FEF8093E8018CE08093E9018BE08093F3
:100CA000EA018AE08093EB0189E08093EC0188E01F
:100CB0008093ED011092EE011092EF011092F0017D
:100CC0001092F1011092F20181E00E94170310923C
:100CD000760110927A011092790110927B0187E1DE
:100CE00091E09093750180937401E0E9F1E0108246
:100CF000148213821582369681E0EC3CF807B9F72E
:100D000083E091E09093D7018093D60180E091E059
:100D10009093D9018093D80184E08093DA0183E035
:100D20008093DB0187E091E09093D5018093D4011B
:100D30008AE090E09093DD018093DC0184EF91E004
:100D40009093DF018093DE011092E2011092E101A5
:100D50001092D0011092D1011092D2011092D301C1
:100D60001092E0010895EE0FFF1F0590F491E02D21
:060D70000994F894FFCF86
:100D7600040506000102033132333435363738397B
:100D86002A302300000000320236023A0200000038
:100D960000EB033D026B026A02496E7075742050C7
:100DA6006173736B65793A00446F6F72204C6F63A1
:100DB6006B6564002A004163636573732047726143
:100DC6006E74656421004163636573732044656EC8
:060DD600696564210000C4
:00000001FF
