:100000000C945E000C9486000C9486000C94860080
:100010000C9486000C9486000C9486000C94860048
:100020000C9486000C9486000C9486000C94860038
:100030000C9486000C9486000C9486000C94860028
:100040000C9481050C9486000C94F1050C94CB055E
:100050000C9486000C9486000C9486000C94860008
:100060000C9486000C9486000000000024002700F9
:100070002A0000000000250028002B0004040404CE
:100080000404040402020202020203030303030342
:10009000010204081020408001020408102001021F
:1000A00004081020000000080002010000030407FB
:1000B00000000000000000002306E50811241FBE18
:1000C000CFEFD8E0DEBFCDBF11E0A0E0B1E0E0E9C6
:1000D000FBE102C005900D92A438B107D9F722E0E8
:1000E000A4E8B1E001C01D92A036B207E1F710E02C
:1000F000CDE5D0E004C02197FE010E94C30BCC35B2
:10010000D107C9F70E94C4060C94BB0D0C940000E3
:1001100090E0FC01EC55FF4F2491FC01E057FF4FAC
:100120003491FC01E458FF4FE491EE23C9F02223FF
:1001300039F0233001F1A8F4213019F1223029F1EE
:10014000F0E0EE0FFF1FEE58FF4FA591B4918FB76F
:10015000F894EC91611126C030953E233C938FBFFB
:1001600008952730A9F02830C9F0243049F780914C
:1001700080008F7D03C0809180008F778093800006
:10018000DFCF84B58F7784BDDBCF84B58F7DFBCF88
:100190008091B0008F778093B000D2CF8091B00073
:1001A0008F7DF9CF3E2BDACFE7EAF0E0E491E33040
:1001B00039F160F4E130D1F0E230E9F060E080380C
:1001C00091050CF061E083E00C948800E73011F1B8
:1001D000E83041F1E43091F72091800020622093D3
:1001E000800090938B0080938A00089594B5906866
:1001F00094BD87BD089594B5906294BD88BD08955F
:100200002091800020682093800090938900809343
:10021000880008959091B00090689093B00080930A
:10022000B30008959091B00090629093B0008093D5
:10023000B4000895CF93DF9390E0FC01E057FF4FA7
:10024000249184589F4FFC0184918823D1F090E041
:10025000880F991FFC01E859FF4FA591B491FC014B
:10026000EE58FF4FC591D49161110EC09FB7F8941D
:100270008C91E22FE0958E238C932881E223E883F2
:100280009FBFDF91CF9108958FB7F894EC91E22B47
:10029000EC938FBFF6CF8E50806480937C0080916A
:1002A0007A00806480937A0080917A0086FDFCCF8A
:1002B000809178009091790008953FB7F8948091EB
:1002C0009D0190919E01A0919F01B091A00126B542
:1002D000A89B05C02F3F19F00196A11DB11D3FBF7E
:1002E000BA2FA92F982F8827BC01CD01620F711D4D
:1002F000811D911D42E0660F771F881F991F4A9547
:10030000D1F70895AF92BF92CF92DF92EF92FF9212
:100310000F931F93CF93DF936C017B018B01040F2D
:10032000151FEB015E01AE18BF08C017D10759F0C9
:100330006991D601ED91FC910190F081E02DC6010B
:100340000995892B79F7C501DF91CF911F910F9105
:10035000FF90EF90DF90CF90BF90AF900895FC0199
:10036000538D448D252F30E0842F90E0821B930B1A
:10037000541710F0CF96089501970895FC01918DC0
:10038000828D981761F0A28DAE0FBF2FB11D5D96C3
:100390008C91928D9F5F9F73928F90E008958FEF65
:1003A0009FEF0895FC01918D828D981731F0828D19
:1003B000E80FF11D858D90E008958FEF9FEF089570
:1003C000FC01918D228D892F90E0805C9F4F821BD4
:1003D00091098F739927089581EA91E00E94E001C5
:1003E00021E0892B09F420E0822F089580E090E03D
:1003F000892B29F00E94EC0181110C9400000895D2
:10040000FC01A48DA80FB92FB11DA35ABF4F2C9189
:10041000848D90E001968F739927848FA689B78980
:100420002C93A089B1898C91837080648C93938D77
:10043000848D981306C00288F389E02D80818F7D1A
:1004400080830895EF92FF920F931F93CF93DF93D2
:10045000EC0181E0888F9B8D8C8D98131AC0E88900
:10046000F989808185FF15C09FB7F894EE89FF89CF
:100470006083E889F98980818370806480839FBF6D
:1004800081E090E0DF91CF911F910F91FF90EF906D
:100490000895F62E0B8D10E00F5F1F4F0F7311277D
:1004A000E02E8C8D8E110CC00FB607FCFACFE889B8
:1004B000F989808185FFF5CFCE010E940002F1CF3E
:1004C000EB8DEC0FFD2FF11DE35AFF4FF0829FB72C
:1004D000F8940B8FEA89FB8980818062CFCFCF931C
:1004E000DF93EC01888D8823B9F0AA89BB89E8895C
:1004F000F9898C9185FD03C0808186FD0DC00FB602
:1005000007FCF7CF8C9185FFF2CF808185FFEDCF7F
:10051000CE010E940002E9CFDF91CF9108950895A6
:1005200090E080E00895CF93DF93EC0160E08E814E
:100530000E94880061E08E810E94880060E08E81C8
:100540000E9488008BE891E00197F1F7DF91CF914D
:100550000895CF92DF92EF92FF920F931F93CF9364
:10056000DF936C017C0187E0E80EF11CD0E0C0E075
:10057000062F10E0B8010C2E02C0759567950A94FD
:10058000E2F76170F70181917F010E948800219656
:10059000C430D10579F7C601DF91CF911F910F913A
:1005A000FF90EF90DF90CF900C949302CF92DF9268
:1005B000EF92FF920F931F93CF93DF93EC01F62EF0
:1005C000642F8C810E9488008D818F3F19F060E03C
:1005D0000E9488000F2D10E08F8584FF25C06E01DA
:1005E00087E0C80ED11CF12CE12CB8010E2C02C002
:1005F000759567950A94E2F76170F60181916F0134
:100600000E948800FFEFEF1AFF0A88E0E816F10465
:1006100061F7CE01DF91CF911F910F91FF90EF9085
:10062000DF90CF900C949302B80184E075956795A4
:100630008A95E1F7CE010E94A9026F2DCE01DF91CC
:10064000CF911F910F91FF90EF90DF90CF900C947E
:10065000A90240E0682F84E492E00C94D60281E085
:100660000E9429038BE39FE10197F1F70895CF934F
:10067000DF93613029F09091530298609093530278
:10068000609357021092580290E49093590280931D
:100690005A02805C80935B0261E0809148020E9474
:1006A0001A01809149028F3F19F061E00E941A01FE
:1006B00061E080914A020E941A01C4E4D2E09E01E6
:1006C000245432408091530284FD0BC084E090E0BA
:1006D00021962817390744F461E08E810E941A019F
:1006E000EECF88E090E0F4CF8BE39DE00197F1F747
:1006F00060E0809148020E94880060E080914A0298
:100700000E948800809149028F3F19F060E00E94AA
:1007100088008091530284FD34C063E084E492E059
:100720000E94A902CBE4D6E4CE010197F1F763E081
:1007300084E492E00E94A9022197F1F763E084E447
:1007400092E00E94A90283E592E00197F1F762E04E
:1007500084E492E00E94A9028091530280620E9488
:10076000290384E0809354028CE00E9429030E94B4
:100770002F0382E08093550286E0DF91CF910C94A5
:10078000290380620E9429038BE496E40197F1F724
:100790008091530280620E94290383E592E00197D1
:1007A000F1F78091530280620E942903D5CF909186
:1007B0005702691710F06FEF690FE62FF0E0EC5B5E
:1007C000FD4F9489890F80680C94290341E00E94B1
:1007D000D60281E090E00895FC0101900020E9F745
:1007E0003197AF01481B590BBC0184E492E00C9493
:1007F00082018F929F92AF92BF920F931F93CF93DC
:10080000DF93CDB7DEB7A1970FB6F894DEBF0FBE6A
:10081000CDBF19A2423008F44AE08E010F5D1F4F90
:10082000842E912CB12CA12CA50194010E94730A55
:10083000E62FB901CA01EA30F4F4E05DD801EE9385
:100840008D01232B242B252B79F790E080E0109746
:1008500019F0CD010E94EC03A1960FB6F894DEBF0B
:100860000FBECDBFDF91CF911F910F91BF90AF9081
:100870009F908F900895E95CE1CF4F925F926F92C5
:100880007F928F929F92AF92BF92CF92DF92EF9220
:10089000FF920F931F93CF936B017C01742EAC01D9
:1008A0009B010E94BE0B882399F084E291E0CF91D6
:1008B0001F910F91FF90EF90DF90CF90BF90AF907E
:1008C0009F908F907F906F905F904F900C94EC036F
:1008D00046015701E894B7F82FEF3FEF4FE75FE786
:1008E000C501B4010E94BE0B81110DC02FEF3FEF77
:1008F0004FE75FE7C501B4010E94EE0818161CF42B
:1009000088E291E0D4CF2FEF3FEF4FE75FE4C701DC
:10091000B6010E94B90B18161CF48CE291E0C7CF07
:100920002FEF3FEF4FE75FECC701B6010E94EE08E3
:1009300087FDF3CF20E030E0A901C701B6010E9496
:10094000EE0810E000E087FF0CC041E06DE284E4B7
:1009500092E00E94D602F7FAF094F7F8F09401E0E2
:1009600010E0C0E060E070E080E09FE37C1641F0C2
:1009700020E030E040E251E40E94110BCF5FF6CF5F
:10098000A70196010E94A50A4B015C010E948A0BF7
:100990002B013C014AE00E94F903080F191FCC23E8
:1009A000C9F1C301B2010E94F3089B01AC01C5016A
:1009B000B4010E94A40A4B015C0141E06EE284E4B0
:1009C00092E00E94D6020F5F1F4FC15018F120E045
:1009D00030E040E251E4C501B4010E9454092B010A
:1009E0003C010E948A0B4B01B12CA12C4AE0C501AD
:1009F000B4010E94F903080F191FC501B4010E9438
:100A0000F3089B01AC01C301B2010E94A40A4B018F
:100A10005C01DBCFC801CF911F910F91FF90EF9048
:100A2000DF90CF90BF90AF909F908F907F906F900E
:100A30005F904F900895CF93DF93EC0180913E0239
:100A400090913F02009759F020914002309141026D
:100A50002C173D0720F081E0DF91CF910895BE0172
:100A60006F5F7F4F0E94EE0C009789F090933F02DA
:100A700080933E02D0934102C093400220914202F3
:100A800030914302232B39F7FC011082E4CF80E040
:100A9000E3CF0F931F93CF93DF938C01EC01099069
:100AA0000020E9F72197C81BD90BCE010E941B0536
:100AB00020913E0230913F02811117C0211531056E
:100AC00019F0C9010E94650C10923F0210923E027B
:100AD0001092430210924202109241021092400280
:100AE000DF91CF911F910F910895D0934302C0934E
:100AF0004202B801C901DF91CF911F910F910C946F
:100B0000B40D1F920F920FB60F9211242F933F93A3
:100B10008F939F93AF93BF938091990190919A0186
:100B2000A0919B01B0919C013091980123E0230F8B
:100B30002D3758F50196A11DB11D20939801809382
:100B4000990190939A01A0939B01B0939C0180918D
:100B50009D0190919E01A0919F01B091A0010196ED
:100B6000A11DB11D80939D0190939E01A0939F01B3
:100B7000B093A001BF91AF919F918F913F912F9121
:100B80000F900FBE0F901F90189526E8230F029626
:100B9000A11DB11DD2CF1F920F920FB60F9211243B
:100BA0002F933F934F935F936F937F938F939F9375
:100BB000AF93BF93EF93FF9381EA91E00E9400020D
:100BC000FF91EF91BF91AF919F918F917F916F9125
:100BD0005F914F913F912F910F900FBE0F901F90FB
:100BE00018951F920F920FB60F9211242F938F9387
:100BF0009F93EF93FF93E091B101F091B201808157
:100C0000E091B701F091B80182FD1BC09081809105
:100C1000BA018F5F8F732091BB01821741F0E09181
:100C2000BA01F0E0EF55FE4F958F8093BA01FF9126
:100C3000EF919F918F912F910F900FBE0F901F906A
:100C400018958081F4CF1092A4011092A30188EE30
:100C500093E0A0E0B0E08093A5019093A601A0935B
:100C6000A701B093A8018AE091E09093A20180933C
:100C7000A10185EC90E09093AE018093AD0184ECEE
:100C800090E09093B0018093AF0180EC90E090935E
:100C9000B2018093B10181EC90E09093B401809314
:100CA000B30182EC90E09093B6018093B50186EC9D
:100CB00090E09093B8018093B7011092BA0110921E
:100CC000BB011092BC011092BD011092470210921C
:100CD00046028CE191E090934502809344028DE0BE
:100CE000809348028FEF809349028CE080934A0200
:100CF0008BE080934B028AE080934C0289E08093E2
:100D00004D0288E080934E0210924F0210925002E2
:100D100010925102109252021092530261E080E14F
:100D20000E94370310923F0210923E02109241023D
:100D300010924002109243021092420290E080E032
:100D40000E941B0520913E0230913F02811113C089
:100D50002115310519F0C9010E94650C10923F025E
:100D600010923E02109243021092420210924102EF
:100D7000109240020895109243021092420268E6D7
:100D800071E0C9010C94B40D789484B5826084BD7F
:100D900084B5816084BD85B5826085BD85B581607F
:100DA00085BD80916E00816080936E0010928100FD
:100DB00080918100826080938100809181008160B8
:100DC0008093810080918000816080938000809179
:100DD000B10084608093B1008091B0008160809305
:100DE000B00080917A00846080937A0080917A00CC
:100DF000826080937A0080917A00816080937A008B
:100E000080917A00806880937A001092C10064E03B
:100E100084E10E943703E091B101F091B20182E0D8
:100E20008083E091AD01F091AE011082E091AF01BD
:100E3000F091B0018FEC80831092B901E091B5017F
:100E4000F091B60186E08083E091B301F091B401A6
:100E5000808180618083E091B301F091B401808151
:100E600088608083E091B301F091B4018081806853
:100E70008083E091B301F091B40180818F7D808304
:100E800061E083E00E941A0160E08EE00E941A0196
:100E900060E08FE00E941A0160E080E10E941A0188
:100EA0000E942F0380915402982F946090935402D3
:100EB0008C600E94290394E0892E912CA12CB12CE6
:100EC000C0E0D0E080E10E944B01BC01990F880B8B
:100ED000990B0E94F5086B017C01C0928801D092A9
:100EE0008901E0928A01F0928B018EE00E944B0111
:100EF0008FE00E944B01BC01990F880B990B0E9457
:100F0000F5082B013C0140928401509285016092CA
:100F100086017092870120E030EC4FE754E4C7016E
:100F2000B6010E94110B20E030E040EA50E40E943C
:100F300054090E94830B9B01AC01A8E1B0E00E9420
:100F4000310AA50194010E94120ACA01B9010E9446
:100F5000F5086093940170939501809396019093A6
:100F6000970120E030EC4FE754E4C301B2010E9446
:100F7000110B20E030E040EA50E40E9454090E9446
:100F8000830B665F7F4F8F4F9F4F0E94F5086B0169
:100F90007C01C0929001D0929101E0929201F09276
:100FA00093018EE00E944B01BC01990F880B990BB5
:100FB0000E94F50820E030E040E85AE30E9454091E
:100FC00020E030E040EA50E40E94540920E030E0A4
:100FD00040E250E40E94A40A22E03BE247E85DE3DD
:100FE0000E94110B60938C0170938D0180938E0190
:100FF00090938F0120E030E048E251E4C701B60150
:101000000E94EE08181664F061E083E00E941A0165
:101010008AE090E00E94D40080E391E00E944905BC
:1010200020E030E048E251E4C701B6010E94B90B6C
:101030001816B4F42DEC3CEC4CE351E4C701B601B6
:101040000E94EE0887FF0CC061E083E00E941A0155
:101050008FE790E00E94D4008DE391E00E94490563
:1010600020E030E040E451E4C701B6010E94B90B32
:10107000181664F461E083E00E941A0188EF90E0A2
:101080000E94D4008CE491E00E9449050E942F0345
:1010900060E081E00E94D7038CE591E00E94EC03C0
:1010A00060E08DE00E94D7036091940170919501FA
:1010B000809196019091970142E00E943D0460E08A
:1010C00081E10E94D70389E691E00E94EC0361E090
:1010D00081E00E94D7038BE691E00E94EC0361E07F
:1010E0008AE00E94D70360919001709191018091F4
:1010F00092019091930142E00E943D0461E08EE0F4
:101100000E94D70389E691E00E94EC0362E081E04F
:101110000E94D70385E791E00E94EC0362E08DE036
:101120000E94D70360918C0170918D0180918E0196
:1011300090918F0142E00E943D0462E081E10E94B3
:10114000D70382E891E00E94EC0363E083E00E9411
:10115000D703409142025091430260913E02709148
:101160003F0284E492E00E9482010E945D012B0113
:101170003C0188EBC82E8BE0D82EE12CF12C0E948C
:101180005D016419750986099709683E73408105F8
:101190009105A8F321E0C21AD108E108F10888EE10
:1011A000480E83E0581E611C711CC114D104E10477
:1011B000F10429F7209709F485CE0E94EC018823D9
:1011C00009F480CE0E9400007DCE80913E02909175
:1011D0003F02009711F00C94650C08950E943009AD
:1011E00008F481E00895E89409C097FB3EF49095D7
:1011F0008095709561957F4F8F4F9F4F9923A9F0F0
:10120000F92F96E9BB279395F6958795779567957E
:10121000B795F111F8CFFAF4BB0F11F460FF1BC0C2
:101220006F5F7F4F8F4F9F4F16C0882311F096E955
:1012300011C0772321F09EE8872F762F05C0662303
:1012400071F096E8862F70E060E02AF09A95660FBC
:10125000771F881FDAF7880F9695879597F9089575
:10126000990F0008550FAA0BE0E8FEEF16161706B7
:10127000E807F907C0F012161306E407F50798F01F
:10128000621B730B840B950B39F40A2661F0232B38
:10129000242B252B21F408950A2609F4A140A695B4
:1012A0008FEF811D811D08950E9467090C94D80954
:1012B0000E94CA0938F00E94D10920F0952311F04C
:1012C0000C94C1090C94C70911240C940C0A0E94B7
:1012D000E90970F3959FC1F3950F50E0551F629F88
:1012E000F001729FBB27F00DB11D639FAA27F00D7F
:1012F000B11DAA1F649F6627B00DA11D661F829FA6
:101300002227B00DA11D621F739FB00DA11D621F8A
:10131000839FA00D611D221F749F3327A00D611DA7
:10132000231F849F600D211D822F762F6A2F112489
:101330009F5750409AF0F1F088234AF0EE0FFF1FBC
:10134000BB1F661F771F881F91505040A9F79E3F13
:10135000510580F00C94C1090C940C0A5F3FE4F332
:10136000983ED4F3869577956795B795F795E79569
:101370009F5FC1F7FE2B880F911D9695879597F972
:10138000089597F99F6780E870E060E008959FEF07
:1013900080EC089500240A9416161706180609060C
:1013A000089500240A9412161306140605060895DB
:1013B000092E0394000C11F4882352F0BB0F40F463
:1013C000BF2B11F460FF04C06F5F7F4F8F4F9F4FA3
:1013D000089557FD9058440F551F59F05F3F71F025
:1013E0004795880F97FB991F61F09F3F79F087958C
:1013F0000895121613061406551FF2CF4695F1DF15
:1014000008C0161617061806991FF1CF86957105A4
:10141000610508940895E894BB2766277727CB01D8
:1014200097F90895052E97FB1EF400940E94290A4F
:1014300057FD07D00E94730A07FC03D04EF40C94AA
:10144000290A50954095309521953F4F4F4F5F4F5A
:10145000089590958095709561957F4F8F4F9F4F20
:1014600008950E94950AA59F900DB49F900DA49F8A
:10147000800D911D112408952F923F924F925F92FB
:101480006F927F928F929F92AF92BF92CF92DF9294
:10149000EF92FF920F931F93CF93DF93CDB7DEB7F9
:1014A000CA1BDB0B0FB6F894DEBF0FBECDBF09948D
:1014B0002A88398848885F846E847D848C849B84E4
:1014C000AA84B984C884DF80EE80FD800C811B81F2
:1014D000AA81B981CE0FD11D0FB6F894DEBF0FBE21
:1014E000CDBFED010895A1E21A2EAA1BBB1BFD0181
:1014F0000DC0AA1FBB1FEE1FFF1FA217B307E407F3
:10150000F50720F0A21BB30BE40BF50B661F771F4A
:10151000881F991F1A9469F760957095809590952A
:101520009B01AC01BD01CF010895A29FB001B39F03
:10153000C001A39F700D811D1124911DB29F700DDC
:10154000811D1124911D08955058BB27AA270E9480
:10155000BC0A0C94D8090E94CA0938F00E94D1092B
:1015600020F039F49F3F19F426F40C94C7090EF4C7
:10157000E095E7FB0C94C109E92F0E94E90958F3B3
:10158000BA17620773078407950720F079F4A6F568
:101590000C940B0A0EF4E0950B2EBA2FA02D0B0124
:1015A000B90190010C01CA01A0011124FF27591BA8
:1015B00099F0593F50F4503E68F11A16F040A22FAE
:1015C000232F342F4427585FF3CF4695379527951F
:1015D000A795F0405395C9F77EF41F16BA0B620B1E
:1015E000730B840BBAF09150A1F0FF0FBB1F661F65
:1015F000771F881FC2F70EC0BA0F621F731F841FA8
:1016000048F4879577956795B795F7959E3F08F0CD
:10161000B0CF9395880F08F09927EE0F979587958F
:1016200008950E94250B0C94D8090E94D10958F006
:101630000E94CA0940F029F45F3F29F00C94C109C7
:1016400051110C940C0A0C94C7090E94E90968F323
:101650009923B1F3552391F3951B550BBB27AA276B
:1016600062177307840738F09F5F5F4F220F331FA5
:10167000441FAA1FA9F335D00E2E3AF0E0E832D06D
:1016800091505040E695001CCAF72BD0FE2F29D070
:10169000660F771F881FBB1F261737074807AB0742
:1016A000B0E809F0BB0B802DBF01FF2793585F4FB7
:1016B0003AF09E3F510578F00C94C1090C940C0A45
:1016C0005F3FE4F3983ED4F3869577956795B79599
:1016D000F7959F5FC9F7880F911D9695879597F9A4
:1016E0000895E1E0660F771F881FBB1F621773071D
:1016F0008407BA0720F0621B730B840BBA0BEE1F32
:1017000088F7E09508950E948A0B6894B1110C94B3
:101710000C0A08950E94F10988F09F5798F0B92F9C
:101720009927B751B0F0E1F0660F771F881F991F16
:101730001AF0BA95C9F714C0B13091F00E940B0AA3
:10174000B1E008950C940B0A672F782F8827B85FB3
:1017500039F0B93FCCF3869577956795B395D9F76E
:101760003EF490958095709561957F4F8F4F9F4F78
:1017700008950E94300908F48FEF08950E943009FF
:10178000880B990B0895EE0FFF1F0590F491E02D43
:1017900009940F931F93CF93DF938230910510F438
:1017A00082E090E0E0915E02F0915F0230E020E0A4
:1017B000B0E0A0E0309799F42115310509F44AC052
:1017C000281B390B24303105D8F58A819B8161159E
:1017D000710589F1FB0193838283FE0111C0408171
:1017E00051810281138148175907E0F048175907C2
:1017F00099F4109761F012960C93129713961C931C
:101800003296CF01DF91CF911F910F9108950093F0
:101810005E0210935F02F4CF2115310551F042179B
:10182000530738F0A901DB019A01BD01DF01F8017E
:10183000C1CFEF01F9CF90935F0280935E02CDCFCD
:10184000FE01E20FF31F81939193225031093983F6
:101850002883D7CF20915C0230915D02232B41F485
:10186000209102013091030130935D0220935C02CC
:1018700020910001309101012115310541F42DB76E
:101880003EB74091040150910501241B350BE091B6
:101890005C02F0915D02E217F307A0F42E1B3F0BF0
:1018A0002817390778F0AC014E5F5F4F24173507D2
:1018B00048F04E0F5F1F50935D0240935C0281938E
:1018C00091939FCFF0E0E0E09CCFCF93DF93009720
:1018D000E9F0FC01329713821282A0915E02B0916E
:1018E0005F02ED0130E020E01097A1F4208131810A
:1018F000820F931F20915C0230915D0228173907F7
:1019000009F061C0F0935D02E0935C02DF91CF913A
:101910000895EA01CE17DF07E8F54A815B819E0151
:1019200041155105B1F7E901FB83EA8349915991CA
:10193000C40FD51FEC17FD0761F4808191810296D9
:10194000840F951FE90199838883828193819B830A
:101950008A83F0E0E0E012968D919C9113970097B6
:10196000B9F52D913C911197CD010296820F931FED
:1019700020915C0230915D022817390739F63097C3
:1019800051F510925F0210925E02B0935D02A09337
:101990005C02BCCFD383C28340815181840F951FE9
:1019A000C817D90761F44E5F5F4F88819981480F4E
:1019B000591F518340838A819B81938382832115A0
:1019C000310509F0B0CFF0935F02E0935E029ECF45
:1019D000FD01DC01C0CF13821282D7CFB0E0A0E0BE
:1019E000E4EFFCE00C943E0A8C01009751F4CB012B
:1019F0000E94C90B8C01C801CDB7DEB7E0E10C94A1
:101A00005A0AFC01E60FF71F9C0122503109E21728
:101A1000F30708F49DC0D901CD91DC911197C61749
:101A2000D70798F0C530D10530F3CE01049786175B
:101A3000970708F3C61BD70B2297C193D1936D93D9
:101A40007C93CF010E94650CD6CF5B01AC1ABD0A16
:101A50004C018C0E9D1EA0915E02B0915F02512C34
:101A6000412CF12CE12C109731F580915C02909182
:101A70005D028815990509F05CC04616570608F006
:101A800058C08091000190910101009741F48DB7F9
:101A90009EB74091040150910501841B950BE817F6
:101AA000F90708F055C0F0935D02E0935C02F9017C
:101AB00071836083A0CF8D919C91119712966C9049
:101AC000129713967C901397A815B90559F56C01D8
:101AD00042E0C40ED11CCA14DB0420F1AC014A1947
:101AE0005B09DA011296159780F062827382518346
:101AF0004083D9016D937C93E114F10471F0D70117
:101B00001396FC93EE93129776CF22968C0F9D1F1F
:101B1000F90191838083F301EFCFF0935F02E093AB
:101B20005E0269CF4816590608F42C017D01D301E5
:101B30009ACFCB010E94C90B7C01009749F0AE01FE
:101B4000B8010E94AB0DC8010E94650C870153CFFC
:101B500010E000E050CFFB01DC0102C001900D92CB
:101B600041505040D8F70895FB01DC0101900D92DF
:101B70000020E1F7089510E0CDE5D0E004C0FE01BB
:101B80000E94C30B2196CE35D107C9F7F894FFCF39
:101B90000000600280000000000022028201AF010C
:101BA0006F02E001BE01D20100000000E6038201E5
:101BB00090028F026E616E00696E66006F7666003D
:101BC0002046617374204368617267650020537416
:101BD0006561647920636861726765002054726989
:101BE000636B6C65204368617267650050562056D0
:101BF0006F6C746167653A200056004261747465C9
:101C000072793A200050562043757272656E743AAC
:041C1000200041006F
:00000001FF
