:100000000C945D000C9485000C9485000C94850084
:100010000C9485000C9485000C9485000C9485004C
:100020000C9485000C9485000C9485000C9485003C
:100030000C9485000C9485000C9485000C9485002C
:100040000C94A1050C9485000C946F050C94490543
:100050000C9485000C9485000C9485000C9485000C
:100060000C9485000C9485000000000024002700FB
:100070002A0000000000250028002B0004040404CE
:100080000404040402020202020203030303030342
:10009000010204081020408001020408102001021F
:1000A00004081020000000080002010000030407FB
:1000B0000000000000000000EB0511241FBECFEF80
:1000C000D8E0DEBFCDBF11E0A0E0B1E0EAE8F4E1A6
:1000D00002C005900D92AC36B107D9F722E0ACE62C
:1000E000B1E001C01D92A633B207E1F710E0CDE503
:1000F000D0E004C02197FE010E943D0ACC35D10713
:10010000C9F70E9436060C94430A0C940000AF9283
:10011000BF92CF92DF92EF92FF920F931F93CF93F4
:10012000DF936C017B018B01040F151FEB015E0156
:10013000AE18BF08C017D10759F06991D601ED91EB
:10014000FC910190F081E02DC6010995892B79F78A
:10015000C501DF91CF911F910F91FF90EF90DF903C
:10016000CF90BF90AF900895FC01538D448D252F03
:1001700030E0842F90E0821B930B541710F0CF9641
:10018000089501970895FC01918D828D981761F073
:10019000A28DAE0FBF2FB11D5D968C91928D9F5F8A
:1001A0009F73928F90E008958FEF9FEF0895FC0169
:1001B000918D828D981731F0828DE80FF11D858D1C
:1001C00090E008958FEF9FEF0895FC01918D228DAF
:1001D000892F90E0805C9F4F821B91098F73992734
:1001E000089581E891E00E94E50021E0892B09F45F
:1001F00020E0822F089580E090E0892B29F00E9472
:10020000F10081110C9400000895FC01A48DA80F49
:10021000B92FB11DA35ABF4F2C91848D90E0019648
:100220008F739927848FA689B7892C93A089B18968
:100230008C91837080648C93938D848D981306C009
:100240000288F389E02D80818F7D80830895EF926D
:10025000FF920F931F93CF93DF93EC0181E0888F80
:100260009B8D8C8D98131AC0E889F989808185FF50
:1002700015C09FB7F894EE89FF896083E889F989F2
:1002800080818370806480839FBF81E090E0DF91F4
:10029000CF911F910F91FF90EF900895F62E0B8D47
:1002A00010E00F5F1F4F0F731127E02E8C8D8E1102
:1002B0000CC00FB607FCFACFE889F989808185FF69
:1002C000F5CFCE010E940501F1CFEB8DEC0FFD2F94
:1002D000F11DE35AFF4FF0829FB7F8940B8FEA8924
:1002E000FB8980818062CFCFCF93DF93EC01888D33
:1002F0008823B9F0AA89BB89E889F9898C9185FDA1
:1003000003C0808186FD0DC00FB607FCF7CF8C912E
:1003100085FFF2CF808185FFEDCFCE010E940501E0
:10032000E9CFDF91CF91089590E0FC01EC55FF4FAC
:100330002491FC01E057FF4F3491FC01E458FF4F3A
:10034000E491EE23C9F0222339F0233001F1A8F41F
:10035000213019F1223029F1F0E0EE0FFF1FEE58A5
:10036000FF4FA591B4918FB7F894EC91611126C01D
:1003700030953E233C938FBF08952730A9F0283055
:10038000C9F0243049F7809180008F7D03C08091AF
:1003900080008F7780938000DFCF84B58F7784BD16
:1003A000DBCF84B58F7DFBCF8091B0008F778093BA
:1003B000B000D2CF8091B0008F7DF9CF3E2BDACF45
:1003C000EAEAF0E0E491E33039F160F4E130D1F0B1
:1003D000E230E9F060E0803891050CF061E086E001
:1003E0000C949401E73011F1E83041F1E43091F7D9
:1003F0002091800020622093800090938B00809356
:100400008A00089594B5906894BD87BD089594B509
:10041000906294BD88BD089520918000206820934B
:100420008000909389008093880008959091B00097
:1004300090689093B0008093B30008959091B000BD
:1004400090629093B0008093B4000895CF93DF93AF
:1004500090E0FC01E057FF4F249184589F4FFC012E
:1004600084918823D1F090E0880F991FFC01E8590E
:10047000FF4FA591B491FC01EE58FF4FC591D49167
:1004800061110EC09FB7F8948C91E22FE0958E23F6
:100490008C932881E223E8839FBFDF91CF91089559
:1004A0008FB7F894EC91E22BEC938FBFF6CF8E5080
:1004B000806480937C0080917A00806480937A00CD
:1004C00080917A0086FDFCCF809178009091790030
:1004D00008953FB7F8948091710190917201A091B5
:1004E0007301B091740126B5A89B05C02F3F19F088
:1004F0000196A11DB11D3FBFBA2FA92F982F8827A4
:10050000BC01CD01620F711D811D911D42E0660F7E
:10051000771F881F991F4A95D1F708958F929F9250
:10052000AF92BF92CF92DF92EF92FF924B015C01AC
:100530000E9469026B017C010E9469026C197D09AD
:100540008E099F09683E734081059105A8F321E05B
:10055000821A9108A108B10888EEC80E83E0D81E5F
:10056000E11CF11C81149104A104B10429F7FF904E
:10057000EF90DF90CF90BF90AF909F908F900895B5
:10058000089590E080E00895FC0101900020E9F7D3
:100590003197AF01481B590BBC018EE192E00C94DE
:1005A00087008F929F92AF92BF920F931F93CF932A
:1005B000DF93CDB7DEB7A1970FB6F894DEBF0FBEBD
:1005C000CDBF19A2423008F44AE08E010F5D1F4FE3
:1005D000842E912CB12CA12CA50194010E941B0A00
:1005E000E62FB901CA01EA30F4F4E05DD801EE93D8
:1005F0008D01232B242B252B79F790E080E0109799
:1006000019F0CD010E94C402A1960FB6F894DEBF86
:100610000FBECDBFDF91CF911F910F91BF90AF90D3
:100620009F908F900895E95CE1CFCF93DF93EC0129
:1006300060E08E810E94940161E08E810E949401AD
:1006400060E08E810E9494018BE891E00197F1F7C0
:10065000DF91CF910895CF92DF92EF92FF920F93A7
:100660001F93CF93DF936C017C0187E0E80EF11CB0
:10067000D0E0C0E0062F10E0B8010C2E02C0759546
:1006800067950A94E2F76170F70181917F010E94FA
:1006900094012196C430D10579F7C601DF91CF913D
:1006A0001F910F91FF90EF90DF90CF900C94150366
:1006B000CF92DF92EF92FF920F931F93CF93DF932E
:1006C000EC01F62E642F8C810E9494018D818F3F66
:1006D00019F060E00E9494010F2D10E08F8584FFD7
:1006E00025C06E0187E0C80ED11CF12CE12CB801A9
:1006F0000E2C02C0759567950A94E2F76170F601B9
:1007000081916F010E949401FFEFEF1AFF0A88E0C8
:10071000E816F10461F7CE01DF91CF911F910F919F
:10072000FF90EF90DF90CF900C941503B80184E018
:10073000759567958A95E1F7CE010E942B036F2D81
:10074000CE01DF91CF911F910F91FF90EF90DF903D
:10075000CF900C942B0340E0682F8EE192E00C9434
:100760005803CF93DF93613029F090912D02986068
:1007700090932D02609331021092320290E4909394
:10078000330280933402805C8093350261E0809173
:1007900022020E942602809123028F3F19F061E01D
:1007A0000E94260261E0809124020E942602CEE18E
:1007B000D2E09E012E51324080912D0284FD0BC06B
:1007C00084E090E021962817390744F461E08E8197
:1007D0000E942602EECF88E090E0F4CF8BE39DE00C
:1007E0000197F1F760E0809122020E94940160E09D
:1007F000809124020E949401809123028F3F19F07E
:1008000060E00E94940180912D0284FD39C063E074
:100810008EE192E00E942B03CBE4D6E4CE01019757
:10082000F1F763E08EE192E00E942B032197F1F74C
:1008300063E08EE192E00E942B0383E592E0019752
:10084000F1F762E08EE192E00E942B0380912D028D
:1008500080620E94AB0384E080932E028CE00E94B1
:10086000AB0381E00E94AB038BE39FE10197F1F7BB
:1008700082E080932F0286E0DF91CF910C94AB034E
:1008800080620E94AB038BE496E40197F1F78091BC
:100890002D0280620E94AB0383E592E00197F1F79D
:1008A00080912D0280620E94AB03D0CF90913102E3
:1008B000691710F06FEF690FE62FF0E0E25EFD4F71
:1008C0009489890F80680C94AB0341E00E9458031F
:1008D00081E090E008954F925F926F927F928F92A5
:1008E0009F92AF92BF92CF92DF92EF92FF920F93BF
:1008F0001F93CF936B017C01742EAC019B010E946E
:10090000160A882399F08EE191E0CF911F910F9103
:10091000FF90EF90DF90CF90BF90AF909F908F901F
:100920007F906F905F904F900C94C40246015701E6
:10093000E894B7F82FEF3FEF4FE75FE7C501B40149
:100940000E94160A81110DC02FEF3FEF4FE75FE7BE
:10095000C501B4010E944C0818161CF482E291E013
:10096000D4CF2FEF3FEF4FE75FE4C701B6010E94FE
:10097000A40918161CF486E291E0C7CF2FEF3FEFD1
:100980004FE75FECC701B6010E944C0887FDF3CF2B
:1009900020E030E0A901C701B6010E944C0810E038
:1009A00000E087FF0CC041E06DE28EE192E00E9422
:1009B0005803F7FAF094F7F8F09401E010E0C0E083
:1009C00060E070E080E09FE37C1641F020E030E0E2
:1009D00040E251E40E945108CF5FF6CFA701960193
:1009E0000E94E0074B015C010E94C3082B013C01FF
:1009F0004AE00E94D102080F191FCC23C9F1C3019C
:100A0000B2010E94F2089B01AC01C501B4010E9431
:100A1000DF074B015C0141E06EE28EE192E00E9453
:100A200058030F5F1F4FC15018F120E030E040E243
:100A300051E4C501B4010E94A9092B013C010E94A7
:100A4000C3084B01B12CA12C4AE0C501B4010E949E
:100A5000D102080F191FC501B4010E94F2089B01C1
:100A6000AC01C301B2010E94DF074B015C01DBCF87
:100A7000C801CF911F910F91FF90EF90DF90CF9021
:100A8000BF90AF909F908F907F906F905F904F90AE
:100A900008951F920F920FB60F9211242F933F9338
:100AA0004F935F936F937F938F939F93AF93BF9376
:100AB000EF93FF9381E891E00E940501FF91EF9190
:100AC000BF91AF919F918F917F916F915F914F9166
:100AD0003F912F910F900FBE0F901F9018951F926E
:100AE0000F920FB60F9211242F938F939F93EF9332
:100AF000FF93E0919101F09192018081E091970143
:100B0000F091980182FD1BC0908180919A018F5FC6
:100B10008F7320919B01821741F0E0919A01F0E0E0
:100B2000EF57FE4F958F80939A01FF91EF919F9120
:100B30008F912F910F900FBE0F901F90189580816D
:100B4000F4CF1F920F920FB60F9211242F933F9361
:100B50008F939F93AF93BF9380916D0190916E019E
:100B6000A0916F01B091700130916C0123E0230FCF
:100B70002D3758F50196A11DB11D20936C0180936E
:100B80006D0190936E01A0936F01B09370018091FD
:100B9000710190917201A0917301B091740101965D
:100BA000A11DB11D8093710190937201A0937301F7
:100BB000B0937401BF91AF919F918F913F912F910D
:100BC0000F900FBE0F901F90189526E8230F0296E6
:100BD000A11DB11DD2CFE1E8F1E01382128288EEAF
:100BE00093E0A0E0B0E084839583A683B78384E09C
:100BF00091E09183808385EC90E09587848784ECF5
:100C000090E09787868780EC90E0918B808B81ECD9
:100C100090E0938B828B82EC90E0958B848B86ECBA
:100C200090E0978B868B118E128E138E148EEEE1D0
:100C3000F2E01382128286E191E0918380838DE05D
:100C400084838FEF85838CE086838BE087838AE0C3
:100C5000808789E0818788E08287138614861586DD
:100C60001686178661E080E10C94B103789484B510
:100C7000826084BD84B5816084BD85B5826085BD98
:100C800085B5816085BD80916E00816080936E0026
:100C90001092810080918100826080938100809118
:100CA00081008160809381008091800081608093C9
:100CB00080008091B10084608093B1008091B00089
:100CC00081608093B00080917A00846080937A0084
:100CD00080917A00826080937A0080917A008160AE
:100CE00080937A0080917A00806880937A001092D5
:100CF000C10064E084E10E94B103E0919101F091B0
:100D0000920182E08083E0918D01F0918E0110824A
:100D1000E0918F01F09190018FEC80831092990106
:100D2000E0919501F091960186E08083E091930136
:100D3000F0919401808180618083E0919301F09132
:100D40009401808188608083E0919301F091940107
:100D5000808180688083E0919301F091940180818B
:100D60008F7D808361E086E00E94260260E08EE055
:100D70000E94260260E08FE00E94260260E080E18F
:100D80000E94260262E081E00E9456048AE291E01D
:100D90000E94C40268EB7BE080E090E00E948E023B
:100DA00081E00E94AB038BE39FE10197F1F7809113
:100DB0002E02982F946090932E028C600E94AB03B9
:100DC000C0E0D0E080E10E945702BC01990F880B7F
:100DD000990B0E94F40820E030E040E85AE30E94BA
:100DE000A90920E030E040EA50E40E94A90924E487
:100DF0003BE84CE65EE30E94510860937D017093EE
:100E00007E0180937F01909380018FE00E945702C2
:100E1000BC01990F880B990B0E94F40820E030E088
:100E200040E85AE30E94A90920E030E040EA50E49B
:100E30000E94A90924E43BE84CE65EE30E945108C5
:100E40006B017C01C0927901D0927A01E0927B0122
:100E5000F0927C018EE00E945702BC01990F880B32
:100E6000990B0E94F40820E030E040E85AE30E9429
:100E7000A90920E030E040EA50E40E94A90920E0FE
:100E800030E040E250E40E94DF0723EC35EF48E217
:100E90005FE30E945108609375017093760180931F
:100EA0007701909378012DEC3CEC4CE351E4C701C1
:100EB000B6010E944C08181644F061E086E00E94DA
:100EC00026028AE090E00E94E00120E030E040E469
:100ED00051E4C701B6010E944C08181644F061E0C5
:100EE00086E00E9426028FE790E00E94E00120E069
:100EF00030E040E451E4C701B6010E94A40918168D
:100F000044F461E086E00E94260288EF90E00E94AF
:100F1000E00160E081E00E9456048CE391E00E94D1
:100F2000C40260E08DE00E94560460917D017091E2
:100F30007E0180917F019091800142E00E946B04CC
:100F400061E081E00E94560489E491E00E94C402BD
:100F500061E082E10E9456046091790170917A010A
:100F600080917B0190917C0142E00E946B0462E0E1
:100F700081E00E9456048BE591E00E94C40262E089
:100F800081E00E9456046091750170917601809114
:100F900077019091780142E00E946B0460EA7FE063
:100FA00080E090E00E948E02209709F40BCF0E940F
:100FB000F100882309F406CF0E94000003CF5058A7
:100FC000BB27AA270E94F7070C946A090E945C09B4
:100FD00038F00E94630920F039F49F3F19F426F499
:100FE0000C9459090EF4E095E7FB0C945309E92F92
:100FF0000E947B0958F3BA176207730784079507A5
:1010000020F079F4A6F50C949D090EF4E0950B2ED2
:10101000BA2FA02D0B01B90190010C01CA01A0014A
:101020001124FF27591B99F0593F50F4503E68F1A5
:101030001A16F040A22F232F342F4427585FF3CFE6
:10104000469537952795A795F0405395C9F77EF4B7
:101050001F16BA0B620B730B840BBAF09150A1F000
:10106000FF0FBB1F661F771F881FC2F70EC0BA0F86
:10107000621F731F841F48F4879577956795B7950E
:10108000F7959E3F08F0B0CF9395880F08F0992709
:10109000EE0F9795879508950E942F0908F481E037
:1010A00008950E9465080C946A090E94630958F02B
:1010B0000E945C0940F029F45F3F29F00C94530929
:1010C00051110C949E090C9459090E947B0968F3F4
:1010D0009923B1F3552391F3951B550BBB27AA27F1
:1010E00062177307840738F09F5F5F4F220F331F2B
:1010F000441FAA1FA9F335D00E2E3AF0E0E832D0F3
:1011000091505040E695001CCAF72BD0FE2F29D0F5
:10111000660F771F881FBB1F261737074807AB07C7
:10112000B0E809F0BB0B802DBF01FF2793585F4F3C
:101130003AF09E3F510578F00C9453090C949E09A7
:101140005F3FE4F3983ED4F3869577956795B7951E
:10115000F7959F5FC9F7880F911D9695879597F929
:101160000895E1E0660F771F881FBB1F62177307A2
:101170008407BA0720F0621B730B840BBA0BEE1FB7
:1011800088F7E09508950E94830988F09F5798F0AA
:10119000B92F9927B751B0F0E1F0660F771F881F7C
:1011A000991F1AF0BA95C9F714C0B13091F00E9496
:1011B0009D09B1E008950C949D09672F782F882729
:1011C000B85F39F0B93FCCF3869577956795B395BD
:1011D000D9F73EF490958095709561957F4F8F4F2C
:1011E0009F4F0895E89409C097FB3EF49095809531
:1011F000709561957F4F8F4F9F4F9923A9F0F92FDD
:1012000096E9BB279395F695879577956795B7955A
:10121000F111F8CFFAF4BB0F11F460FF1BC06F5F40
:101220007F4F8F4F9F4F16C0882311F096E911C052
:10123000772321F09EE8872F762F05C0662371F073
:1012400096E8862F70E060E02AF09A95660F771F87
:10125000881FDAF7880F9695879597F90895990F63
:101260000008550FAA0BE0E8FEEF16161706E80770
:10127000F907C0F012161306E407F50798F0621B91
:10128000730B840B950B39F40A2661F0232B242B66
:10129000252B21F408950A2609F4A140A6958FEF85
:1012A000811D811D089597F99F6780E870E060E0D7
:1012B00008959FEF80EC089500240A9416161706EF
:1012C00018060906089500240A9412161306140637
:1012D00005060895092E0394000C11F4882352F09A
:1012E000BB0F40F4BF2B11F460FF04C06F5F7F4F52
:1012F0008F4F9F4F089557FD9058440F551F59F039
:101300005F3F71F04795880F97FB991F61F09F3FF2
:1013100079F087950895121613061406551FF2CF1B
:101320004695F1DF08C0161617061806991FF1CF6B
:1013300086957105610508940895E894BB27662792
:101340007727CB0197F908950E942F0908F48FEFB2
:1013500008950E94BC090C946A090E945C0938F047
:101360000E94630920F0952311F00C9453090C940A
:10137000590911240C949E090E947B0970F3959FD2
:10138000C1F3950F50E0551F629FF001729FBB277C
:10139000F00DB11D639FAA27F00DB11DAA1F649F18
:1013A0006627B00DA11D661F829F2227B00DA11DCB
:1013B000621F739FB00DA11D621F839FA00D611D51
:1013C000221F749F3327A00D611D231F849F600D72
:1013D000211D822F762F6A2F11249F5750409AF09B
:1013E000F1F088234AF0EE0FFF1FBB1F661F771F27
:1013F000881F91505040A9F79E3F510580F00C94F2
:1014000053090C949E095F3FE4F3983ED4F386950C
:1014100077956795B795F795E7959F5FC1F7FE2B91
:10142000880F911D9695879597F908950E942F0929
:10143000880B990B0895A1E21A2EAA1BBB1BFD0174
:101440000DC0AA1FBB1FEE1FFF1FA217B307E407A3
:10145000F50720F0A21BB30BE40BF50B661F771FFB
:10146000881F991F1A9469F76095709580959095DB
:101470009B01AC01BD01CF010895EE0FFF1F059048
:0A148000F491E02D0994F894FFCFD9
:10148A000000000027018700B4007401E500C300D2
:10149A00D7000000000065048700C102C0026E6127
:1014AA006E00696E66006F76660050574D20534F86
:1014BA004C415220434841524745520050562076EB
:1014CA006F6C746167653A20004261747465727961
:1014DA0020766F6C746167653A20004368617267B1
:0C14EA00652043757272656E743A200034
:00000001FF
