:020000040000FA
:100000000C946C000C9494000C9494000C94940048
:100010000C9494000C9494000C9494000C94940010
:100020000C9494000C9494000C9494000C94940000
:100030000C9494000C9494000C9494000C949400F0
:100040000C9407020C9494000C9477020C945102C7
:100050000C9494000C9494000C9494000C949400D0
:100060000C9494000C94940005A84CCDB2D44EB9D5
:100070003836A9020C50B9918688083CA6AAAA2A4B
:10008000BE000000803F00000008000201000003E5
:100090000407000000000000000000000000250030
:1000A00028002B0000000000240027002A00040480
:1000B0000404040404040202020202020303030310
:1000C00003030102040810204080010204081020EC
:1000D0000102040810209E0311241FBECFEFD8E0B8
:1000E000DEBFCDBF11E0A0E0B1E0E4EFFBE002C075
:1000F00005900D92A631B107D9F721E0A6E1B1E054
:1001000001C01D92AE3BB207E1F710E0CCE6D0E0B3
:1001100004C02197FE010E94F205CB36D107C9F732
:100120000E94A9020C94F8050C940000E5ECF0E0A4
:100130002491E1EBF0E08491882399F090E0880F1E
:10014000991FFC01EC55FF4FA591B491FC01E656B7
:10015000FF4F859194918FB7F894EC91E22BEC933B
:100160008FBF0895E9E8F0E02491E5ECF0E0949188
:10017000E1EBF0E0E491EE23C9F0222339F02330E3
:1001800001F1A8F4213019F1223029F1F0E0EE0F4D
:10019000FF1FE656FF4FA591B4912FB7F894EC914D
:1001A000811126C090959E239C932FBF08952730E0
:1001B000A9F02830C9F0243049F7209180002F7D24
:1001C00003C0209180002F7720938000DFCF24B5DB
:1001D0002F7724BDDBCF24B52F7DFBCF2091B0003E
:1001E0002F772093B000D2CF2091B0002F7DF9CF90
:1001F0009E2BDACFAF92BF92CF92DF92EF92FF9217
:100200000F931F93CF93DF936C017B018B01040F3E
:10021000151FEB015E01AE18BF08C017D10759F0DA
:100220006991D601ED91FC910190F081E02DC6011C
:100230000995892B79F7C501DF91CF911F910F9116
:10024000FF90EF90DF90CF90BF90AF900895FC01AA
:10025000538D448D252F30E0842F90E0821B930B2B
:10026000541710F0CF96089501970895FC01918DD1
:10027000828D981761F0A28DAE0FBF2FB11D5D96D4
:100280008C91928D9F5F9F73928F90E008958FEF76
:100290009FEF0895FC01918D828D981731F0828D2A
:1002A000E80FF11D858D90E008958FEF9FEF089581
:1002B000FC01918D228D892F90E0805C9F4F821BE5
:1002C00091098F739927089586E191E00E94580162
:1002D00021E0892B09F420E0822F089580E090E04E
:1002E000892B29F00E94640181110C94000008956B
:1002F000FC01A48DA80FB92FB11DA35ABF4F2C919B
:10030000848D90E001968F739927848FA689B78991
:100310002C93A089B1898C91837080648C93938D88
:10032000848D981306C00288F389E02D80818F7D2B
:1003300080830895EF92FF920F931F93CF93DF93E3
:10034000EC0181E0888F9B8D8C8D98131AC0E88911
:10035000F989808185FF15C09FB7F894EE89FF89E0
:100360006083E889F98980818370806480839FBF7E
:1003700081E090E0DF91CF911F910F91FF90EF907E
:100380000895F62E0B8D10E00F5F1F4F0F7311278E
:10039000E02E8C8D8E110CC00FB607FCFACFE889C9
:1003A000F989808185FFF5CFCE010E947801F1CFD8
:1003B000EB8DEC0FFD2FF11DE35AFF4FF0829FB73D
:1003C000F8940B8FEA89FB8980818062CFCFCF932D
:1003D000DF93EC01888D8823B9F0AA89BB89E8896D
:1003E000F9898C9185FD03C0808186FD0DC00FB613
:1003F00007FCF7CF8C9185FFF2CF808185FFEDCF91
:10040000CE010E947801E9CFDF91CF9108951F922C
:100410000F920FB60F9211242F933F938F939F93B8
:10042000AF93BF938091BA019091BB01A091BC01A1
:10043000B091BD013091B90123E0230F2D3758F55C
:100440000196A11DB11D2093B9018093BA0190932B
:10045000BB01A093BC01B093BD018091B501909107
:10046000B601A091B701B091B8010196A11DB11DCF
:100470008093B5019093B601A093B701B093B801F2
:10048000BF91AF919F918F913F912F910F900FBE90
:100490000F901F90189526E8230F0296A11DB11DFD
:1004A000D2CF1F920F920FB60F9211242F933F932A
:1004B0004F935F936F937F938F939F93AF93BF936C
:1004C000EF93FF9386E191E00E947801FF91EF9115
:1004D000BF91AF919F918F917F916F915F914F915C
:1004E0003F912F910F900FBE0F901F9018951F9264
:1004F0000F920FB60F9211242F938F939F93EF9328
:10050000FF93E0912601F09127018081E0912C0179
:10051000F0912D0182FD1BC0908180912F018F5F92
:100520008F7320913001821741F0E0912F01F0E0AC
:10053000EA5EFE4F958F80932F01FF91EF919F917F
:100540008F912F910F900FBE0F901F901895808163
:10055000F4CFCF93DF93CDB7DEB7A1970FB6F89462
:10056000DEBF0FBECDBF789484B5826084BD84B5F4
:10057000816084BD85B5826085BD85B5816085BD9E
:1005800080916E00816080936E0010928100809156
:1005900081008260809381008091810081608093DE
:1005A0008100809180008160809380008091B10003
:1005B00084608093B1008091B00081608093B0002E
:1005C00080917A00846080937A0080917A008260C2
:1005D00080937A0080917A00816080937A00809184
:1005E0007A00806880937A001092C1000E94960081
:1005F000E0912601F091270182E08083E0912201C1
:10060000F09123011082E0912401F09125018FECFB
:10061000808310922E01E0912A01F0912B0186E057
:100620008083E0912801F09129018081806180839D
:10063000E0912801F0912901808188608083E09118
:100640002801F0912901808180688083E091280150
:10065000F091290180818F7D808333E3932E7E0189
:1006600080E2E80EF11C40E0A42E40E0B42E10E041
:1006700000E0B801012E000C880B990B0E940304C6
:100680000E94D40420E030E04FE753E40E94670466
:100690000E94CB032B017093B4016093B3010E94BD
:1006A000960081E00E94B200620182E04816510487
:1006B00040F0C201880F991F880F991F0597019775
:1006C000F1F70E94960080E00E94B20082E0C81616
:1006D000D10450F0440C551C440C551C85E0481ABC
:1006E0005108C2010197F1F719A298A2F7010190F0
:1006F0000020E9F73197AF014E195F09B70186E194
:1007000091E00E94FA0042E050E062E171E086E18F
:1007100091E00E94FA000F5F1F4F083681E0180732
:1007200009F0A7CFA114B10409F4A1CF0E9464017C
:10073000882309F49CCF0E94000099CFE6E1F1E004
:100740001382128288EE93E0A0E0B0E08483958368
:10075000A683B78384E091E09183808385EC90E069
:100760009587848784EC90E09787868780EC90E07B
:10077000918B808B81EC90E0938B828B82EC90E06C
:10078000958B848B86EC90E0978B868B118E128EE6
:10079000138E148E08950E94D2036894B1110C94A4
:1007A000610408950E94460488F09F5798F0B92F7D
:1007B0009927B751B0F0E1F0660F771F881F991F96
:1007C0001AF0BA95C9F714C0B13091F00E946004D4
:1007D000B1E008950C946004672F782F8827B85FE4
:1007E00039F0B93FCCF3869577956795B395D9F7EE
:1007F0003EF490958095709561957F4F8F4F9F4FF8
:100800000895E89409C097FB3EF490958095709503
:1008100061957F4F8F4F9F4F9923A9F0F92F96E94C
:10082000BB279395F695879577956795B795F111C1
:10083000F8CFFAF4BB0F11F460FF1BC06F5F7F4F5E
:100840008F4F9F4F16C0882311F096E911C0772370
:1008500021F09EE8872F762F05C0662371F096E879
:10086000862F70E060E02AF09A95660F771F881F48
:10087000DAF7880F9695879597F9089557FD905860
:10088000440F551F59F05F3F71F04795880F97FB54
:10089000991F61F09F3F79F087950895121613060E
:1008A0001406551FF2CF4695F1DF08C0161617063D
:1008B0001806991FF1CF8695710561050894089572
:1008C000E894BB2766277727CB0197F908950E9404
:1008D0007A040C941E050E94E50438F00E94EC0492
:1008E00020F0952311F00C94DC040C94E204112404
:1008F0000C9461040E943E0470F3959FC1F3950F20
:1009000050E0551F629FF001729FBB27F00DB11D93
:10091000639FAA27F00DB11DAA1F649F6627B00D23
:10092000A11D661F829F2227B00DA11D621F739F0C
:10093000B00DA11D621F839FA00D611D221F749F1A
:100940003327A00D611D231F849F600D211D822F61
:10095000762F6A2F11249F5750409AF0F1F0882388
:100960004AF0EE0FFF1FBB1F661F771F881F9150B5
:100970005040A9F79E3F510580F00C94DC040C9484
:1009800061045F3FE4F3983ED4F3869577956795CD
:10099000B795F795E7959F5FC1F7FE2B880F911DDF
:1009A0009695879597F908959F930E94F5040F9067
:1009B00007FCEE5F0C942F0597F99F6780E870E0C5
:1009C00060E008959FEF80EC089500240A941616C5
:1009D000170618060906089500240A94121613062D
:1009E0001406050608950C94E2040E944604D8F308
:1009F000E894E0E0BB279F57F0F02AED3FE049EC98
:100A000006C0EE0FBB0F661F771F881F28F0B23A93
:100A100062077307840728F0B25A620B730B840BCA
:100A2000E3959A9572F7803830F49A95BB0F661F5C
:100A3000771F881FD2F790480C94AB05092E0394BA
:100A4000000C11F4882352F0BB0F40F4BF2B11F4BB
:100A500060FF04C06F5F7F4F8F4F9F4F0895EF93EC
:100A6000E0FF07C0A2EA2AED3FE049EC5FEB0E94FD
:100A700054050E941E050F90039401FC9058E8E66F
:100A8000F0E00C94B7050E94E50438F00E94EC04F5
:100A900020F039F49F3F19F426F40C94E2040EF48C
:100AA000E095E7FB0C94DC04E92F0E943E0458F328
:100AB000BA17620773078407950720F079F4A6F543
:100AC0000C9460040EF4E0950B2EBA2FA02D0B01B0
:100AD000B90190010C01CA01A0011124FF27591B83
:100AE00099F0593F50F4503E68F11A16F040A22F89
:100AF000232F342F4427585FF3CF469537952795FA
:100B0000A795F0405395C9F77EF41F16BA0B620BF8
:100B1000730B840BBAF09150A1F0FF0FBB1F661F3F
:100B2000771F881FC2F70EC0BA0F621F731F841F82
:100B300048F4879577956795B795F7959E3F08F0A8
:100B4000B0CF9395880F08F09927EE0F979587956A
:100B500008959F3F31F0915020F4879577956795E0
:100B6000B795880F911D9695879597F908959F934E
:100B70008F937F936F93FF93EF939B01AC010E9440
:100B80006704EF91FF910E94CB052F913F914F9108
:100B90005F910C946704DF93CF931F930F93FF92A1
:100BA000EF92DF927B018C01689406C0DA2EEF0190
:100BB0000E947A04FE01E894A59125913591459112
:100BC0005591A6F3EF010E945405FE019701A8017B
:100BD000DA9469F7DF90EF90FF900F911F91CF911A
:100BE000DF910895EE0FFF1F0590F491E02D099419
:100BF000F894FFCF000000009A01FA002701E701F6
:0A0C0000580136014A010D0A0000F8
:107E0000112484B714BE81FFF0D085E080938100F7
:107E100082E08093C00088E18093C10086E0809377
:107E2000C20080E18093C4008EE0C9D0259A86E02C
:107E300020E33CEF91E0309385002093840096BBD3
:107E4000B09BFECF1D9AA8958150A9F7CC24DD24C4
:107E500088248394B5E0AB2EA1E19A2EF3E0BF2EE7
:107E6000A2D0813461F49FD0082FAFD0023811F036
:107E7000013811F484E001C083E08DD089C08234E0
:107E800011F484E103C0853419F485E0A6D080C0E4
:107E9000853579F488D0E82EFF2485D0082F10E0AE
:107EA000102F00270E291F29000F111F8ED06801E7
:107EB0006FC0863521F484E090D080E0DECF843638
:107EC00009F040C070D06FD0082F6DD080E0C81688
:107ED00080E7D80618F4F601B7BEE895C0E0D1E017
:107EE00062D089930C17E1F7F0E0CF16F0E7DF06D8
:107EF00018F0F601B7BEE89568D007B600FCFDCFD4
:107F0000A601A0E0B1E02C9130E011968C91119780
:107F100090E0982F8827822B932B1296FA010C0160
:107F200087BEE89511244E5F5F4FF1E0A038BF0790
:107F300051F7F601A7BEE89507B600FCFDCF97BE46
:107F4000E89526C08437B1F42ED02DD0F82E2BD052
:107F50003CD0F601EF2C8F010F5F1F4F84911BD097
:107F6000EA94F801C1F70894C11CD11CFA94CF0C13
:107F7000D11C0EC0853739F428D08EE10CD085E9AC
:107F80000AD08FE07ACF813511F488E018D01DD067
:107F900080E101D065CF982F8091C00085FFFCCF94
:107FA0009093C60008958091C00087FFFCCF809118
:107FB000C00084FD01C0A8958091C6000895E0E648
:107FC000F0E098E1908380830895EDDF803219F02E
:107FD00088E0F5DFFFCF84E1DECF1F93182FE3DFCA
:107FE0001150E9F7F2DF1F91089580E0E8DFEE27F6
:047FF000FF270994CA
:027FFE00040479
:00000001FF
