:020000040000FA
:100000000C9462000C948A000C948A000C948A0070
:100010000C948A000C948A000C948A000C948A0038
:100020000C948A000C948A000C948A000C948A0028
:100030000C948A000C948A000C948A000C948A0018
:100040000C94F1030C948A000C948A000C948A009E
:100050000C948A000C948A000C948A000C948A00F8
:100060000C948A000C948A000000000024002700F1
:100070002A0000000000250028002B0000000000DE
:1000800023002600290004040404040404040202DA
:100090000202020203030303030301020408102007
:1000A0004080010204081020010204081020000012
:1000B0000008000201000003040700000000000027
:1000C0000000360611241FBECFEFD8E0DEBFCDBF43
:1000D00011E0A0E0B1E0EEE7FDE002C005900D9276
:1000E000AA36B107D9F722E0AAE6B1E001C01D9215
:1000F000A030B207E1F710E0C2E6D0E004C02197DB
:10010000FE010E94AE06C136D107C9F70E943B042A
:100110000C94BD060C94000096E0899FD001112438
:10012000A758BE4F90967C936E935F9791E09196FF
:100130009C939197E091E601F091E7019091E501A0
:10014000992339F0309751F0811108C080919501C1
:100150000994309719F05C968C91FACF0895CF925C
:10016000DF92EF92FF920F931F9396E0899FF00129
:100170001124E758FE4F11A2278D30A121303105FF
:1001800051F178F02230310509F451C023303105A6
:1001900009F452C01F910F91FF90EF90DF90CF9024
:1001A00008956623B9F361E070E00E948C002FB7D8
:1001B000F8948091750190917601A0917701B091AA
:1001C00078012FBF8093D1019093D201A093D301E6
:1001D000B093D401DFCF9FB7F894C0907501D09051
:1001E0007601E0907701F09078019FBF0091D101F6
:1001F0001091D2012091D3013091D401C01AD10ABB
:10020000E20AF30A0091E3011091E40130E020E0FA
:100210000C151D052E053F0550F462E070E01F919E
:100220000F91FF90EF90DF90CF900C948C006111B4
:10023000B1CF63E070E0F3CF70E060E0F0CF8330E7
:1002400081F028F4813099F08230A9F00895873048
:10025000A9F08830C9F08430B1F4809180008F7D9E
:1002600003C0809180008F7780938000089584B5CB
:100270008F7784BD089584B58F7DFBCF8091B000CA
:100280008F778093B00008958091B0008F7DF9CF73
:10029000CF93DF93282F30E0F901E255FF4F84918F
:1002A000F901E656FF4FD491F901EA57FF4FC49187
:1002B000CC23A1F081110E941F01EC2FF0E0EE0F82
:1002C000FF1FE458FF4FA591B491EC91ED2381E01D
:1002D00090E009F480E0DF91CF91089580E090E014
:1002E000FACF1F93CF93DF93282F30E0F901E25527
:1002F000FF4F8491F901E656FF4FD491F901EA5777
:10030000FF4FC491CC23A9F0162F81110E941F0129
:10031000EC2FF0E0EE0FFF1FEE58FF4FA591B491C8
:100320008FB7F894EC91111108C0D095DE23DC93BF
:100330008FBFDF91CF911F910895DE2BF8CFCF9320
:10034000DF9390E0FC01E656FF4F24918A579F4FC0
:10035000FC0184918823C9F090E0880F991FFC016B
:10036000E859FF4FA591B491FC01EE58FF4FC5919C
:10037000D49161110DC09FB7F8948C912095822380
:100380008C938881282328839FBFDF91CF91089584
:10039000623051F49FB7F8943C91822F809583236B
:1003A0008C93E8812E2BEFCF8FB7F894EC912E2B06
:1003B0002C938FBFEACF3FB7F89480917101909151
:1003C0007201A0917301B091740126B5A89B05C07C
:1003D0002F3F19F00196A11DB11D3FBFBA2FA92FC4
:1003E000982F8827BC01CD01620F711D811D911DC1
:1003F00042E0660F771F881F991F4A95D1F708952D
:100400008F929F92AF92BF92CF92DF92EF92FF9224
:100410004B015C010E94DB016B017C010E94DB014E
:100420006C197D098E099F09683E7340810591050D
:10043000A8F321E0821A9108A108B10888EEC80E3D
:1004400083E0D81EE11CF11C81149104A104B104C5
:1004500029F7FF90EF90DF90CF90BF90AF909F90E3
:100460008F900895862F642F0C949F01862F642F00
:100470000C947101862F0C944801AF92BF92CF92D9
:10048000DF92EF92FF920F931F93CF93DF936C0154
:100490007B018B01040F151FEB015E01AE18BF0835
:1004A000C017D10759F06991D601ED91FC910190E7
:1004B000F081E02DC6010995892B79F7C501DF91FF
:1004C000CF911F910F91FF90EF90DF90CF90BF9051
:1004D000AF900895089590E080E00895FC010190A8
:1004E0000020E9F73197AF01481B590BBC0188EE9A
:1004F00091E00C943D02CF93DF93EC0160E08E819C
:100500000E94710161E08E810E94710160E08E8124
:100510000E9471018BE891E00197F1F7DF91CF9193
:100520000895CF92DF92EF92FF920F931F93CF9394
:10053000DF936C017C0187E0E80EF11CD0E0C0E0A5
:10054000062F10E0B8010C2E02C0759567950A942D
:10055000E2F76170F70181917F010E94710121969C
:10056000C430D10579F7C601DF91CF911F910F916A
:10057000FF90EF90DF90CF900C947B02CF92DF92B0
:10058000EF92FF920F931F93CF93DF93EC01F62E20
:10059000642F8C810E9471018D818F3F19F060E082
:1005A0000E9471010F2D10E08F8584FF25C06E0120
:1005B00087E0C80ED11CF12CE12CB8010E2C02C032
:1005C000759567950A94E2F76170F60181916F0164
:1005D0000E947101FFEFEF1AFF0A88E0E816F104AC
:1005E00061F7CE01DF91CF911F910F91FF90EF90B6
:1005F000DF90CF900C947B02B80184E075956795ED
:100600008A95E1F7CE010E9491026F2DCE01DF9114
:10061000CF911F910F91FF90EF90DF90CF900C94AE
:10062000910240E0682F88EE91E00C94BE02CF93D7
:10063000DF93823029F49091F70198609093F7014D
:100640008093FB011092FC0180E48093FD0180E126
:100650008093FE0180E58093FF0161E08091EC01D1
:100660000E949F018091ED018F3F19F061E00E948F
:100670009F0161E08091EE010E949F01C8EED1E0F0
:100680009E01285E31408091F70184FD0BC084E01B
:1006900090E021962817390744F461E08E810E948A
:1006A0009F01EECF88E090E0F4CF8BE39DE00197CF
:1006B000F1F760E08091EC010E94710160E08091AF
:1006C000EE010E9471018091ED018F3F19F060E011
:1006D0000E9471018091F70184FD39C063E088EECA
:1006E00091E00E949102CBE4D6E4CE010197F1F7AC
:1006F00063E088EE91E00E9491022197F1F763E0B8
:1007000088EE91E00E94910283E592E00197F1F773
:1007100062E088EE91E00E9491028091F701806290
:100720000E94110384E08093F8018CE00E94110381
:1007300081E00E9411038BE39FE10197F1F782E0D2
:100740008093F90186E0DF91CF910C9411038062D0
:100750000E9411038BE496E40197F1F78091F70171
:1007600080620E94110383E592E00197F1F7809186
:10077000F70180620E941103D0CF81E00E94110333
:100780008BE39FE10197F1F78EE291E00E946E0208
:10079000E091FB01E23040F4E150F0E0E851FE4F1F
:1007A000848980680C941103E1E0F7CF60E087E072
:1007B0000E9471010E94BD038DE391E00E946E02D0
:1007C0006CED75E080E090E00E9400020E94BD03A5
:1007D00010926F01089541E00E94BE0281E090E016
:1007E00008951F920F920FB60F9211242F933F93EB
:1007F0008F939F93AF93BF938091750190917601F2
:10080000A0917701B09178013091700123E0230F1E
:100810002D3758F50196A11DB11D209370018093CD
:10082000750190937601A0937701B0937801809140
:10083000710190917201A0917301B09174010196C0
:10084000A11DB11D8093710190937201A09373015A
:10085000B0937401BF91AF919F918F913F912F9170
:100860000F900FBE0F901F90189526E8230F029649
:10087000A11DB11DD2CF789484B5826084BD84B5AA
:10088000816084BD85B5826085BD85B5816085BD8B
:1008900080916E00816080936E0010928100809143
:1008A00081008260809381008091810081608093CB
:1008B0008100809180008160809380008091B100F0
:1008C00084608093B1008091B00081608093B0001B
:1008D00080917A00846080937A0080917A008260AF
:1008E00080937A0080917A00816080937A00809171
:1008F0007A00806880937A001092C10061E087E0FE
:100900000E949F0182E00E9417038EE291E00E9404
:100910006E02E091FB01E23008F057C0E150F0E0D8
:10092000E851FE4F848980680E9411038091F8018C
:10093000982F92609093F8018A600E94110360E002
:1009400087E00E947101812C912C54018394222410
:100950002A94322C50E0652E50E0752E51E05093D1
:10096000E5018FB7F894409175015091760160913F
:100970007701709178018FBF8091D5019091D60158
:10098000A091D701B091D801481B590B6A0B7B0B82
:100990008091E1019091E201B0E0A0E08417950719
:1009A000A607B70708F016C1C0E08091DF01C8179D
:1009B00070F4E091DB01F091DC01EC0FF11D62E0DD
:1009C00080810E949F01CF5FF0CFE1E0A8CF512C42
:1009D0008091E001581608F05FC0052D10E0E0910D
:1009E000DD01F091DE01E00FF11F61E080810E94E6
:1009F0009F01E091DD01F091DE01E00FF11F60E069
:100A000080810E947101D501C401052C04C0880FAA
:100A1000991FAA1FBB1F0A94D2F76C017C01E094B6
:100A2000F094412C8091DF014816F8F4C42DD0E0F9
:100A3000E091DB01F091DC01EC0FFD1F80810E9451
:100A400048012496CC0FDD1FC758DE4F892B41F497
:100A5000888199818C299D29998388834394E2CF49
:100A6000888199818E219F21F7CFE091DD01F0915E
:100A7000DE01E00FF11F61E080810E947101809131
:100A8000DD019091DE01080F191F60E0F8018081FF
:100A90000E949F0153949CCFC9E7D1E0FE01878D4E
:100AA00090A1892B21F4148E368E258E11A23696B4
:100AB00051E0E53BF50799F710E08091DF01181749
:100AC00008F053C000E0E12EF12CEE0CFF1CC70132
:100AD0008F579E4F7C012091E001021708F043C020
:100AE000F70160817181002E02C0769567950A94A6
:100AF000E2F7129F90011124200F311DE9E7F1E088
:100B000080E0458D568D2417350709F4ADC08F5F01
:100B100036968A30B1F760FF24C0E9E7F1E090E053
:100B200080E0448D411118C0E091D901F091DA01C3
:100B3000E20FF31F408156E0589FF001599FF00DDE
:100B40001124E758FE4F448F368F258F10A2178E41
:100B500061E00E94AF0005C0019636968A3091058B
:100B600001F70F5FB8CF1F5FA8CF80E099A1911167
:100B7000892F269691E0C53BD907C1F79FB7F89416
:100B800040917501509176016091770170917801E3
:100B90009FBF4093D5015093D6016093D7017093C6
:100BA000D8018823B9F080919A01882399F0809127
:100BB000980190919901019769F4C0919501C11133
:100BC0000CC010926E016114710409F4C7CE0E942A
:100BD0000000C4CE1092E501F4CF80916F01843003
:100BE000CCF4CA3229F410926E010E94D603EBCFE6
:100BF000C33281F089E491E00E946E0280916F011E
:100C0000E82F082E000CFF0BE659FE4FC0838F5FC4
:100C100080936F0110926E01CA3239F3C33299F694
:100C200063E171E08AE691E00E94B406892B89F4C1
:100C30000E94BD038BE491E00E946E0261E087E0B8
:100C40000E94710168EB7BE080E090E00E9400026E
:100C5000CCCF0E94BD038BE591E00E946E0264EF51
:100C600071E080E090E0F2CF617073CF1092EB0101
:100C70001092EA0186E291E09093E9018093E80105
:100C80008DE08093EC018FEF8093ED018CE08093F9
:100C9000EE018BE08093EF018AE08093F00189E020
:100CA0008093F10188E08093F2011092F301109299
:100CB000F4011092F5011092F6011092F70181E013
:100CC0000E94170310927B0110927F0110927E0107
:100CD000109280018CE191E090937A0180937901E8
:100CE000E5E9F1E01082148213821582369681E0E4
:100CF000E13DF807B9F783E091E09093DC01809340
:100D0000DB0180E091E09093DE018093DD0184E0DF
:100D10008093DF0183E08093E00187E091E090938E
:100D2000DA018093D9018AE090E09093E201809308
:100D3000E10184EF91E09093E4018093E30110924C
:100D4000E7011092E6011092D5011092D60110929F
:100D5000D7011092D8011092E5010895EE0FFF1F00
:100D60000590F491E02D0994FB01DC018D91019037
:100D700080190110D9F3990B0895F894FFCF040559
:100D800006000102033132333435363738392A3020
:100D900023313334360000000000320236023A02BA
:100DA00000000000EB033D026B026A02496E7075A1
:100DB0007420506173736B65793A00446F6F7220D1
:100DC0004C6F636B6564002A004163636573732035
:100DD0004772616E746564210041636365737320BB
:080DE00044656E6965642100A1
:107E0000112484B714BE81FFF0D085E080938100F7
:107E100082E08093C00088E18093C10086E0809377
:107E2000C20080E18093C4008EE0C9D0259A86E02C
:107E300020E33CEF91E0309385002093840096BBD3
:107E4000B09BFECF1D9AA8958150A9F7CC24DD24C4
:107E500088248394B5E0AB2EA1E19A2EF3E0BF2EE7
:107E6000A2D0813461F49FD0082FAFD0023811F036
:107E7000013811F484E001C083E08DD089C08234E0
:107E800011F484E103C0853419F485E0A6D080C0E4
:107E9000853579F488D0E82EFF2485D0082F10E0AE
:107EA000102F00270E291F29000F111F8ED06801E7
:107EB0006FC0863521F484E090D080E0DECF843638
:107EC00009F040C070D06FD0082F6DD080E0C81688
:107ED00080E7D80618F4F601B7BEE895C0E0D1E017
:107EE00062D089930C17E1F7F0E0CF16F0E7DF06D8
:107EF00018F0F601B7BEE89568D007B600FCFDCFD4
:107F0000A601A0E0B1E02C9130E011968C91119780
:107F100090E0982F8827822B932B1296FA010C0160
:107F200087BEE89511244E5F5F4FF1E0A038BF0790
:107F300051F7F601A7BEE89507B600FCFDCF97BE46
:107F4000E89526C08437B1F42ED02DD0F82E2BD052
:107F50003CD0F601EF2C8F010F5F1F4F84911BD097
:107F6000EA94F801C1F70894C11CD11CFA94CF0C13
:107F7000D11C0EC0853739F428D08EE10CD085E9AC
:107F80000AD08FE07ACF813511F488E018D01DD067
:107F900080E101D065CF982F8091C00085FFFCCF94
:107FA0009093C60008958091C00087FFFCCF809118
:107FB000C00084FD01C0A8958091C6000895E0E648
:107FC000F0E098E1908380830895EDDF803219F02E
:107FD00088E0F5DFFFCF84E1DECF1F93182FE3DFCA
:107FE0001150E9F7F2DF1F91089580E0E8DFEE27F6
:047FF000FF270994CA
:027FFE00040479
:00000001FF
