:100000000C946C000C9494000C9494000C94940048
:100010000C9494000C9494000C9494000C94940010
:100020000C9494000C9494000C9494000C94940000
:100030000C9494000C9494000C9494000C949400F0
:100040000C9407020C9494000C9477020C945102C7
:100050000C9494000C9494000C9494000C949400D0
:100060000C9494000C94940005A84CCDB2D44EB9D5
:100070003836A9020C50B9918688083CA6AAAA2A4B
:10008000BE000000803F00000008000201000003E5
:100090000407000000000000000000000000250030
:1000A00028002B0000000000240027002A00040480
:1000B0000404040404040202020202020303030310
:1000C00003030102040810204080010204081020EC
:1000D000010204081020100411241FBECFEFD8E045
:1000E000DEBFCDBF11E0A0E0B1E0ECE1FDE002C079
:1000F00005900D92A631B107D9F721E0A6E1B1E054
:1001000001C01D92AE3BB207E1F710E0CCE6D0E0B3
:1001100004C02197FE010E948606CB36D107C9F79D
:100120000E94A9020C948C060C940000E5ECF0E00F
:100130002491E1EBF0E08491882399F090E0880F1E
:10014000991FFC01EC55FF4FA591B491FC01E656B7
:10015000FF4F859194918FB7F894EC91E22BEC933B
:100160008FBF0895E9E8F0E02491E5ECF0E0949188
:10017000E1EBF0E0E491EE23C9F0222339F02330E3
:1001800001F1A8F4213019F1223029F1F0E0EE0F4D
:10019000FF1FE656FF4FA591B4912FB7F894EC914D
:1001A000811126C090959E239C932FBF08952730E0
:1001B000A9F02830C9F0243049F7209180002F7D24
:1001C00003C0209180002F7720938000DFCF24B5DB
:1001D0002F7724BDDBCF24B52F7DFBCF2091B0003E
:1001E0002F772093B000D2CF2091B0002F7DF9CF90
:1001F0009E2BDACFAF92BF92CF92DF92EF92FF9217
:100200000F931F93CF93DF936C017B018B01040F3E
:10021000151FEB015E01AE18BF08C017D10759F0DA
:100220006991D601ED91FC910190F081E02DC6011C
:100230000995892B79F7C501DF91CF911F910F9116
:10024000FF90EF90DF90CF90BF90AF900895FC01AA
:10025000538D448D252F30E0842F90E0821B930B2B
:10026000541710F0CF96089501970895FC01918DD1
:10027000828D981761F0A28DAE0FBF2FB11D5D96D4
:100280008C91928D9F5F9F73928F90E008958FEF76
:100290009FEF0895FC01918D828D981731F0828D2A
:1002A000E80FF11D858D90E008958FEF9FEF089581
:1002B000FC01918D228D892F90E0805C9F4F821BE5
:1002C00091098F739927089586E191E00E94580162
:1002D00021E0892B09F420E0822F089580E090E04E
:1002E000892B29F00E94640181110C94000008956B
:1002F000FC01A48DA80FB92FB11DA35ABF4F2C919B
:10030000848D90E001968F739927848FA689B78991
:100310002C93A089B1898C91837080648C93938D88
:10032000848D981306C00288F389E02D80818F7D2B
:1003300080830895EF92FF920F931F93CF93DF93E3
:10034000EC0181E0888F9B8D8C8D98131AC0E88911
:10035000F989808185FF15C09FB7F894EE89FF89E0
:100360006083E889F98980818370806480839FBF7E
:1003700081E090E0DF91CF911F910F91FF90EF907E
:100380000895F62E0B8D10E00F5F1F4F0F7311278E
:10039000E02E8C8D8E110CC00FB607FCFACFE889C9
:1003A000F989808185FFF5CFCE010E947801F1CFD8
:1003B000EB8DEC0FFD2FF11DE35AFF4FF0829FB73D
:1003C000F8940B8FEA89FB8980818062CFCFCF932D
:1003D000DF93EC01888D8823B9F0AA89BB89E8896D
:1003E000F9898C9185FD03C0808186FD0DC00FB613
:1003F00007FCF7CF8C9185FFF2CF808185FFEDCF91
:10040000CE010E947801E9CFDF91CF9108951F922C
:100410000F920FB60F9211242F933F938F939F93B8
:10042000AF93BF938091BA019091BB01A091BC01A1
:10043000B091BD013091B90123E0230F2D3758F55C
:100440000196A11DB11D2093B9018093BA0190932B
:10045000BB01A093BC01B093BD018091B501909107
:10046000B601A091B701B091B8010196A11DB11DCF
:100470008093B5019093B601A093B701B093B801F2
:10048000BF91AF919F918F913F912F910F900FBE90
:100490000F901F90189526E8230F0296A11DB11DFD
:1004A000D2CF1F920F920FB60F9211242F933F932A
:1004B0004F935F936F937F938F939F93AF93BF936C
:1004C000EF93FF9386E191E00E947801FF91EF9115
:1004D000BF91AF919F918F917F916F915F914F915C
:1004E0003F912F910F900FBE0F901F9018951F9264
:1004F0000F920FB60F9211242F938F939F93EF9328
:10050000FF93E0912601F09127018081E0912C0179
:10051000F0912D0182FD1BC0908180912F018F5F92
:100520008F7320913001821741F0E0912F01F0E0AC
:10053000EA5EFE4F958F80932F01FF91EF919F917F
:100540008F912F910F900FBE0F901F901895808163
:10055000F4CFCF93DF93CDB7DEB7A1970FB6F89462
:10056000DEBF0FBECDBF789484B5826084BD84B5F4
:10057000816084BD85B5826085BD85B5816085BD9E
:1005800080916E00816080936E0010928100809156
:1005900081008260809381008091810081608093DE
:1005A0008100809180008160809380008091B10003
:1005B00084608093B1008091B00081608093B0002E
:1005C00080917A00846080937A0080917A008260C2
:1005D00080937A0080917A00816080937A00809184
:1005E0007A00806880937A001092C1000E94960081
:1005F000E0912601F091270182E08083E0912201C1
:10060000F09123011082E0912401F09125018FECFB
:10061000808310922E01E0912A01F0912B0186E057
:100620008083E0912801F09129018081806180839D
:10063000E0912801F0912901808188608083E09118
:100640002801F0912901808180688083E091280150
:10065000F091290180818F7D80838BED282E312CB4
:100660009AE0492E512C612C712C20E0822E20E042
:10067000922E10E000E0B801012E000C880B990BBF
:100680000E9475040E94460520E030E04FE753E4E5
:100690000E94D9040E943D046B015B017093B40178
:1006A0006093B3010E949600C114D10409F059C0AF
:1006B00080E00E94B200C1010197F1F7C090B30140
:1006C000D090B4010D2C000CEE08FF08F7FE92C08C
:1006D0006DE286E191E00E949A0122273327A90169
:1006E0002C193D094E095F0919A2CE0181967C01A2
:1006F000CA01B901A30192010E946406605DF7017D
:1007000062937F01211531054105510589F7E114F7
:10071000F10461F001900020E9F73197AF014E1923
:100720005F09B70186E191E00E94FA0042E050E0E3
:1007300062E171E086E191E00E94FA000F5F1F4FD5
:100740000836F1E01F0709F096CF8114910409F4EF
:1007500090CF0E946401882309F48BCF0E9400008F
:1007600088CF8FEFC816D10411F481E0A2CFE9E859
:10077000F0E08491833021F148F48130B9F0823087
:10078000D1F0F0E8AF16B10484F792CF873011F1C1
:10079000883041F18430A9F7809180008062809395
:1007A0008000D0928B00C0928A0085CF84B580688B
:1007B00084BDC7BC80CF84B5806284BDC8BC7BCFFC
:1007C00080918000806880938000D0928900C092E0
:1007D000880071CF8091B00080688093B000C09293
:1007E000B30069CF8091B00080628093B000C09266
:1007F000B40061CFA701960119A2CE0181967C01B8
:10080000CA01B901A30192010E946406605DF7016B
:1008100062937F01211531054105510589F777CF95
:10082000E6E1F1E01382128288EE93E0A0E0B0E00E
:1008300084839583A683B78384E091E0918380834A
:1008400085EC90E09587848784EC90E09787868795
:1008500080EC90E0918B808B81EC90E0938B828B8D
:1008600082EC90E0958B848B86EC90E0978B868B66
:10087000118E128E138E148E08950E944404689473
:10088000B1110C94D30408950E94B80488F09F57C6
:1008900098F0B92F9927B751B0F0E1F0660F771FA4
:1008A000881F991F1AF0BA95C9F714C0B13091F09A
:1008B0000E94D204B1E008950C94D204672F782FDF
:1008C0008827B85F39F0B93FCCF38695779567955F
:1008D000B395D9F73EF490958095709561957F4FCB
:1008E0008F4F9F4F0895E89409C097FB3EF4909571
:1008F0008095709561957F4F8F4F9F4F9923A9F0F9
:10090000F92F96E9BB279395F69587957795679587
:10091000B795F111F8CFFAF4BB0F11F460FF1BC0CB
:100920006F5F7F4F8F4F9F4F16C0882311F096E95E
:1009300011C0772321F09EE8872F762F05C066230C
:1009400071F096E8862F70E060E02AF09A95660FC5
:10095000771F881FDAF7880F9695879597F908957E
:1009600057FD9058440F551F59F05F3F71F0479560
:10097000880F97FB991F61F09F3F79F08795089545
:10098000121613061406551FF2CF4695F1DF08C064
:10099000161617061806991FF1CF86957105610581
:1009A00008940895E894BB2766277727CB0197F929
:1009B00008950E94EC040C9490050E94570538F0AD
:1009C0000E945E0520F0952311F00C944E050C94C6
:1009D000540511240C94D3040E94B00470F3959F25
:1009E000C1F3950F50E0551F629FF001729FBB2726
:1009F000F00DB11D639FAA27F00DB11DAA1F649FC2
:100A00006627B00DA11D661F829F2227B00DA11D74
:100A1000621F739FB00DA11D621F839FA00D611DFA
:100A2000221F749F3327A00D611D231F849F600D1B
:100A3000211D822F762F6A2F11249F5750409AF044
:100A4000F1F088234AF0EE0FFF1FBB1F661F771FD0
:100A5000881F91505040A9F79E3F510580F00C949B
:100A60004E050C94D3045F3FE4F3983ED4F386958F
:100A700077956795B795F795E7959F5FC1F7FE2B3B
:100A8000880F911D9695879597F908959F930E94D9
:100A900067050F9007FCEE5F0C94A10597F99F671F
:100AA00080E870E060E008959FEF80EC08950024F6
:100AB0000A941616170618060906089500240A94C3
:100AC000121613061406050608950C9454050E9488
:100AD000B804D8F3E894E0E0BB279F57F0F02AED84
:100AE0003FE049EC06C0EE0FBB0F661F771F881F63
:100AF00028F0B23A62077307840728F0B25A620BF3
:100B0000730B840BE3959A9572F7803830F49A95BD
:100B1000BB0F661F771F881FD2F790480C941D06E5
:100B2000092E0394000C11F4882352F0BB0F40F4FB
:100B3000BF2B11F460FF04C06F5F7F4F8F4F9F4F3B
:100B40000895EF93E0FF07C0A2EA2AED3FE049ECE9
:100B50005FEB0E94C6050E9490050F90039401FC74
:100B60009058E8E6F0E00C9429060E94570538F00A
:100B70000E945E0520F039F49F3F19F426F40C948E
:100B800054050EF4E095E7FB0C944E05E92F0E9406
:100B9000B00458F3BA17620773078407950720F06B
:100BA00079F4A6F50C94D2040EF4E0950B2EBA2F2E
:100BB000A02D0B01B90190010C01CA01A001112463
:100BC000FF27591B99F0593F50F4503E68F11A160F
:100BD000F040A22F232F342F4427585FF3CF4695A0
:100BE00037952795A795F0405395C9F77EF41F16C2
:100BF000BA0B620B730B840BBAF09150A1F0FF0F8C
:100C0000BB1F661F771F881FC2F70EC0BA0F621F77
:100C1000731F841F48F4879577956795B795F79567
:100C20009E3F08F0B0CF9395880F08F09927EE0FFC
:100C30009795879508959F3F31F0915020F48795BF
:100C400077956795B795880F911D9695879597F934
:100C500008959F938F937F936F93FF93EF939B01DF
:100C6000AC010E94D904EF91FF910E943D062F91A3
:100C70003F914F915F910C94D904DF93CF931F93D1
:100C80000F93FF92EF92DF927B018C01689406C074
:100C9000DA2EEF010E94EC04FE01E894A591259163
:100CA000359145915591A6F3EF010E94C605FE01CD
:100CB0009701A801DA9469F7DF90EF90FF900F9108
:100CC0001F91CF91DF910895A1E21A2EAA1BBB1BA1
:100CD000FD010DC0AA1FBB1FEE1FFF1FA217B30708
:100CE000E407F50720F0A21BB30BE40BF50B661F1E
:100CF000771F881F991F1A9469F7609570958095E2
:100D000090959B01AC01BD01CF010895EE0FFF1F2F
:0C0D10000590F491E02D0994F894FFCFB9
:100D1C00000000009A01FA002701E7015801360192
:060D2C004A010D0A00005F
:00000001FF
