:100000000C945D000C9485000C9485000C94850084
:100010000C9485000C9485000C9485000C9485004C
:100020000C9485000C9485000C9485000C9485003C
:100030000C9485000C9485000C9485000C9485002C
:100040000C9449050C9485000C94B9050C94930507
:100050000C9485000C9485000C9485000C9485000C
:100060000C9485000C9485000000000024002700FB
:100070002A0000000000250028002B0004040404CE
:100080000404040402020202020203030303030342
:10009000010204081020408001020408102001021F
:1000A00004081020000000080002010000030407FB
:1000B0000000000000000000EB0511241FBECFEF80
:1000C000D8E0DEBFCDBF11E0A0E0B1E0EAE8F4E1A6
:1000D00002C005900D92A436B107D9F722E0A4E63C
:1000E000B1E001C01D92AE32B207E1F710E0CDE5FC
:1000F000D0E004C02197FE010E943D0ACC35D10713
:10010000C9F70E9436060C94430A0C94000090E054
:10011000FC01EC55FF4F2491FC01E057FF4F349157
:10012000FC01E458FF4FE491EE23C9F0222339F09B
:10013000233001F1A8F4213019F1223029F1F0E047
:10014000EE0FFF1FEE58FF4FA591B4918FB7F894B3
:10015000EC91611126C030953E233C938FBF0895EA
:100160002730A9F02830C9F0243049F78091800069
:100170008F7D03C0809180008F7780938000DFCFD8
:1001800084B58F7784BDDBCF84B58F7DFBCF809125
:10019000B0008F778093B000D2CF8091B0008F7D78
:1001A000F9CF3E2BDACFEAEAF0E0E491E33039F11F
:1001B00060F4E130D1F0E230E9F060E080389105A0
:1001C0000CF061E086E00C948700E73011F1E83034
:1001D00041F1E43091F7209180002062209380006B
:1001E00090938B0080938A00089594B5906894BD95
:1001F00087BD089594B5906294BD88BD08952091FF
:10020000800020682093800090938900809388006C
:1002100008959091B00090689093B0008093B300DF
:1002200008959091B00090629093B0008093B400D4
:100230000895CF93DF9390E0FC01E057FF4F2491A6
:1002400084589F4FFC0184918823D1F090E0880F5F
:10025000991FFC01E859FF4FA591B491FC01EE589C
:10026000FF4FC591D49161110EC09FB7F8948C9146
:10027000E22FE0958E238C932881E223E8839FBFB1
:10028000DF91CF9108958FB7F894EC91E22BEC9326
:100290008FBFF6CF8E50806480937C0080917A006F
:1002A000806480937A0080917A0086FDFCCF8091F3
:1002B00078009091790008953FB7F8948091750186
:1002C00090917601A0917701B091780126B5A89B15
:1002D00005C02F3F19F00196A11DB11D3FBFBA2FD8
:1002E000A92F982F8827BC01CD01620F711D811D98
:1002F000911D42E0660F771F881F991F4A95D1F71D
:1003000008958F929F92AF92BF92CF92DF92EF9219
:10031000FF924B015C010E945C016B017C010E9419
:100320005C016C197D098E099F09683E7340810547
:100330009105A8F321E0821A9108A108B10888EE7E
:10034000C80E83E0D81EE11CF11C81149104A104A5
:10035000B10429F7FF90EF90DF90CF90BF90AF905E
:100360009F908F900895AF92BF92CF92DF92EF92BD
:10037000FF920F931F93CF93DF936C017B018B014F
:10038000040F151FEB015E01AE18BF08C017D1079F
:1003900059F06991D601ED91FC910190F081E02D29
:1003A000C6010995892B79F7C501DF91CF911F917E
:1003B0000F91FF90EF90DF90CF90BF90AF90089596
:1003C000FC01538D448D252F30E0842F90E0821B5B
:1003D000930B541710F0CF96089501970895FC01E0
:1003E000918D828D981761F0A28DAE0FBF2FB11D38
:1003F0005D968C91928D9F5F9F73928F90E0089590
:100400008FEF9FEF0895FC01918D828D981731F049
:10041000828DE80FF11D858D90E008958FEF9FEF9D
:100420000895FC01918D228D892F90E0805C9F4F73
:10043000821B91098F739927089589E791E00E94A3
:10044000110221E0892B09F420E0822F089580E039
:1004500090E0892B29F00E941D0281110C9400006C
:100460000895FC01A48DA80FB92FB11DA35ABF4F49
:100470002C91848D90E001968F739927848FA689A3
:10048000B7892C93A089B1898C91837080648C93F7
:10049000938D848D981306C00288F389E02D8081A6
:1004A0008F7D80830895EF92FF920F931F93CF93D8
:1004B000DF93EC0181E0888F9B8D8C8D98131AC09F
:1004C000E889F989808185FF15C09FB7F894EE8986
:1004D000FF896083E889F9898081837080648083E3
:1004E0009FBF81E090E0DF91CF911F910F91FF902E
:1004F000EF900895F62E0B8D10E00F5F1F4F0F73D6
:100500001127E02E8C8D8E110CC00FB607FCFACF90
:10051000E889F989808185FFF5CFCE010E943102FB
:10052000F1CFEB8DEC0FFD2FF11DE35AFF4FF08261
:100530009FB7F8940B8FEA89FB8980818062CFCFC7
:10054000CF93DF93EC01888D8823B9F0AA89BB890A
:10055000E889F9898C9185FD03C0808186FD0DC0F5
:100560000FB607FCF7CF8C9185FFF2CF808185FF16
:10057000EDCFCE010E943102E9CFDF91CF910895F6
:10058000089590E080E00895FC0101900020E9F7D3
:100590003197AF01481B590BBC0186E192E00C94E6
:1005A000B3018F929F92AF92BF920F931F93CF93FD
:1005B000DF93CDB7DEB7A1970FB6F894DEBF0FBEBD
:1005C000CDBF19A2423008F44AE08E010F5D1F4FE3
:1005D000842E912CB12CA12CA50194010E941B0A00
:1005E000E62FB901CA01EA30F4F4E05DD801EE93D8
:1005F0008D01232B242B252B79F790E080E0109799
:1006000019F0CD010E94C402A1960FB6F894DEBF86
:100610000FBECDBFDF91CF911F910F91BF90AF90D3
:100620009F908F900895E95CE1CFCF93DF93EC0129
:1006300060E08E810E94870061E08E810E948700C9
:1006400060E08E810E9487008BE891E00197F1F7CE
:10065000DF91CF910895CF92DF92EF92FF920F93A7
:100660001F93CF93DF936C017C0187E0E80EF11CB0
:10067000D0E0C0E0062F10E0B8010C2E02C0759546
:1006800067950A94E2F76170F70181917F010E94FA
:1006900087002196C430D10579F7C601DF91CF914B
:1006A0001F910F91FF90EF90DF90CF900C94150366
:1006B000CF92DF92EF92FF920F931F93CF93DF932E
:1006C000EC01F62E642F8C810E9487008D818F3F74
:1006D00019F060E00E9487000F2D10E08F8584FFE5
:1006E00025C06E0187E0C80ED11CF12CE12CB801A9
:1006F0000E2C02C0759567950A94E2F76170F601B9
:1007000081916F010E948700FFEFEF1AFF0A88E0D6
:10071000E816F10461F7CE01DF91CF911F910F919F
:10072000FF90EF90DF90CF900C941503B80184E018
:10073000759567958A95E1F7CE010E942B036F2D81
:10074000CE01DF91CF911F910F91FF90EF90DF903D
:10075000CF900C942B0340E0682F86E192E00C943C
:100760005803CF93DF93613029F090912502986070
:10077000909325026093290210922A0290E49093AC
:100780002B0280932C02805C80932D0261E080918B
:100790001A020E94190180911B028F3F19F061E03B
:1007A0000E94190161E080911C020E941901C6E1BA
:1007B000D2E09E01265132408091250284FD0BC07B
:1007C00084E090E021962817390744F461E08E8197
:1007D0000E941901EECF88E090E0F4CF8BE39DE01A
:1007E0000197F1F760E080911A020E94870060E0B3
:1007F00080911C020E94870080911B028F3F19F09C
:1008000060E00E9487008091250284FD39C063E08A
:1008100086E192E00E942B03CBE4D6E4CE0101975F
:10082000F1F763E086E192E00E942B032197F1F754
:1008300063E086E192E00E942B0383E592E001975A
:10084000F1F762E086E192E00E942B03809125029D
:1008500080620E94AB0384E0809326028CE00E94B9
:10086000AB0381E00E94AB038BE39FE10197F1F7BB
:1008700082E08093270286E0DF91CF910C94AB0356
:1008800080620E94AB038BE496E40197F1F78091BC
:10089000250280620E94AB0383E592E00197F1F7A5
:1008A0008091250280620E94AB03D0CF90912902F3
:1008B000691710F06FEF690FE62FF0E0EA5EFD4F69
:1008C0009489890F80680C94AB0341E00E9458031F
:1008D00081E090E008954F925F926F927F928F92A5
:1008E0009F92AF92BF92CF92DF92EF92FF920F93BF
:1008F0001F93CF936B017C01742EAC019B010E946E
:10090000160A882399F08EE191E0CF911F910F9103
:10091000FF90EF90DF90CF90BF90AF909F908F901F
:100920007F906F905F904F900C94C40246015701E6
:10093000E894B7F82FEF3FEF4FE75FE7C501B40149
:100940000E94160A81110DC02FEF3FEF4FE75FE7BE
:10095000C501B4010E944C0818161CF482E291E013
:10096000D4CF2FEF3FEF4FE75FE4C701B6010E94FE
:10097000A40918161CF486E291E0C7CF2FEF3FEFD1
:100980004FE75FECC701B6010E944C0887FDF3CF2B
:1009900020E030E0A901C701B6010E944C0810E038
:1009A00000E087FF0CC041E06DE286E192E00E942A
:1009B0005803F7FAF094F7F8F09401E010E0C0E083
:1009C00060E070E080E09FE37C1641F020E030E0E2
:1009D00040E251E40E945108CF5FF6CFA701960193
:1009E0000E94E0074B015C010E94C3082B013C01FF
:1009F0004AE00E94D102080F191FCC23C9F1C3019C
:100A0000B2010E94F2089B01AC01C501B4010E9431
:100A1000DF074B015C0141E06EE286E192E00E945B
:100A200058030F5F1F4FC15018F120E030E040E243
:100A300051E4C501B4010E94A9092B013C010E94A7
:100A4000C3084B01B12CA12C4AE0C501B4010E949E
:100A5000D102080F191FC501B4010E94F2089B01C1
:100A6000AC01C301B2010E94DF074B015C01DBCF87
:100A7000C801CF911F910F91FF90EF90DF90CF9021
:100A8000BF90AF909F908F907F906F905F904F90AE
:100A900008951F920F920FB60F9211242F933F9338
:100AA0008F939F93AF93BF93809171019091720147
:100AB000A0917301B09174013091700123E0230F74
:100AC0002D3758F50196A11DB11D2093700180931B
:100AD000710190937201A0937301B093740180919E
:100AE000750190917601A0917701B09178010196FE
:100AF000A11DB11D8093750190937601A09377019C
:100B0000B0937801BF91AF919F918F913F912F91B9
:100B10000F900FBE0F901F90189526E8230F029696
:100B2000A11DB11DD2CF1F920F920FB60F921124AB
:100B30002F933F934F935F936F937F938F939F93E5
:100B4000AF93BF93EF93FF9389E791E00E94310247
:100B5000FF91EF91BF91AF919F918F917F916F9195
:100B60005F914F913F912F910F900FBE0F901F906B
:100B700018951F920F920FB60F9211242F938F93F7
:100B80009F93EF93FF93E0918901F0918A01808117
:100B9000E0918F01F091900182FD1BC090818091C6
:100BA00092018F5F8F7320919301821741F0E09142
:100BB0009201F0E0E758FE4F958F80939201FF91EC
:100BC000EF919F918F912F910F900FBE0F901F90DB
:100BD00018958081F4CFE9E7F1E01382128288EE64
:100BE00093E0A0E0B0E084839583A683B78384E09C
:100BF00091E09183808385EC90E09587848784ECF5
:100C000090E09787868780EC90E0918B808B81ECD9
:100C100090E0938B828B82EC90E0958B848B86ECBA
:100C200090E0978B868B118E128E138E148EE6E1D8
:100C3000F2E01382128286E191E0918380838DE05D
:100C400084838FEF85838CE086838BE087838AE0C3
:100C5000808789E0818788E08287138614861586DD
:100C60001686178661E080E10C94B103789484B510
:100C7000826084BD84B5816084BD85B5826085BD98
:100C800085B5816085BD80916E00816080936E0026
:100C90001092810080918100826080938100809118
:100CA00081008160809381008091800081608093C9
:100CB00080008091B10084608093B1008091B00089
:100CC00081608093B00080917A00846080937A0084
:100CD00080917A00826080937A0080917A008160AE
:100CE00080937A0080917A00806880937A001092D5
:100CF000C10064E084E10E94B103E0918901F091B8
:100D00008A0182E08083E0918501F0918601108262
:100D1000E0918701F09188018FEC8083109291011E
:100D2000E0918D01F0918E0186E08083E0918B014E
:100D3000F0918C01808180618083E0918B01F09142
:100D40008C01808188608083E0918B01F0918C011F
:100D5000808180688083E0918B01F0918C0180819B
:100D60008F7D808361E086E00E94190160E08EE063
:100D70000E94190160E08FE00E94190160E080E1AB
:100D80000E94190162E081E00E9456048AE291E02B
:100D90000E94C40268EB7BE080E090E00E94810149
:100DA00081E00E94AB038BE39FE10197F1F7809113
:100DB0002602982F9460909326028C600E94AB03C9
:100DC000C0E0D0E080E10E944A01BC01990F880B8D
:100DD000990B0E94F40820E030E040E85AE30E94BA
:100DE000A90920E030E040EA50E40E94A90924E487
:100DF0003BE84CE65EE30E94510860936C017093FF
:100E00006D0180936E0190936F018FE00E944A0103
:100E1000BC01990F880B990B0E94F40820E030E088
:100E200040E85AE30E94A90920E030E040EA50E49B
:100E30000E94A90924E43BE84CE65EE30E945108C5
:100E40006B017C01C0926801D0926901E0926A0155
:100E5000F0926B018EE00E944A01BC01990F880B51
:100E6000990B0E94F40820E030E040E85AE30E9429
:100E7000A90920E030E040EA50E40E94A90920E0FE
:100E800030E040E250E40E94DF0723EC35EF48E217
:100E90005FE30E9451086093640170936501809341
:100EA0006601909367012DEC3CEC4CE351E4C701E3
:100EB000B6010E944C08181644F061E086E00E94DA
:100EC00019018AE090E00E94D30020E030E040E485
:100ED00051E4C701B6010E944C08181644F061E0C5
:100EE00086E00E9419018FE790E00E94D30020E085
:100EF00030E040E451E4C701B6010E94A40918168D
:100F000044F461E086E00E94190188EF90E00E94BD
:100F1000D30060E081E00E9456048CE391E00E94DF
:100F2000C40260E08DE00E94560460916C017091F3
:100F30006D0180916E0190916F0142E00E946B04FF
:100F400061E081E00E94560489E491E00E94C402BD
:100F500061E082E10E94560460916801709169012C
:100F600080916A0190916B0142E00E946B0462E003
:100F700081E00E94560483E591E00E94C40262E091
:100F800081E00E9456046091640170916501809136
:100F900066019091670142E00E946B0460EA7FE085
:100FA00080E090E00E948101209709F40BCF0E941D
:100FB0001D02882309F406CF0E94000003CF505879
:100FC000BB27AA270E94F7070C946A090E945C09B4
:100FD00038F00E94630920F039F49F3F19F426F499
:100FE0000C9459090EF4E095E7FB0C945309E92F92
:100FF0000E947B0958F3BA176207730784079507A5
:1010000020F079F4A6F50C949D090EF4E0950B2ED2
:10101000BA2FA02D0B01B90190010C01CA01A0014A
:101020001124FF27591B99F0593F50F4503E68F1A5
:101030001A16F040A22F232F342F4427585FF3CFE6
:10104000469537952795A795F0405395C9F77EF4B7
:101050001F16BA0B620B730B840BBAF09150A1F000
:10106000FF0FBB1F661F771F881FC2F70EC0BA0F86
:10107000621F731F841F48F4879577956795B7950E
:10108000F7959E3F08F0B0CF9395880F08F0992709
:10109000EE0F9795879508950E942F0908F481E037
:1010A00008950E9465080C946A090E94630958F02B
:1010B0000E945C0940F029F45F3F29F00C94530929
:1010C00051110C949E090C9459090E947B0968F3F4
:1010D0009923B1F3552391F3951B550BBB27AA27F1
:1010E00062177307840738F09F5F5F4F220F331F2B
:1010F000441FAA1FA9F335D00E2E3AF0E0E832D0F3
:1011000091505040E695001CCAF72BD0FE2F29D0F5
:10111000660F771F881FBB1F261737074807AB07C7
:10112000B0E809F0BB0B802DBF01FF2793585F4F3C
:101130003AF09E3F510578F00C9453090C949E09A7
:101140005F3FE4F3983ED4F3869577956795B7951E
:10115000F7959F5FC9F7880F911D9695879597F929
:101160000895E1E0660F771F881FBB1F62177307A2
:101170008407BA0720F0621B730B840BBA0BEE1FB7
:1011800088F7E09508950E94830988F09F5798F0AA
:10119000B92F9927B751B0F0E1F0660F771F881F7C
:1011A000991F1AF0BA95C9F714C0B13091F00E9496
:1011B0009D09B1E008950C949D09672F782F882729
:1011C000B85F39F0B93FCCF3869577956795B395BD
:1011D000D9F73EF490958095709561957F4F8F4F2C
:1011E0009F4F0895E89409C097FB3EF49095809531
:1011F000709561957F4F8F4F9F4F9923A9F0F92FDD
:1012000096E9BB279395F695879577956795B7955A
:10121000F111F8CFFAF4BB0F11F460FF1BC06F5F40
:101220007F4F8F4F9F4F16C0882311F096E911C052
:10123000772321F09EE8872F762F05C0662371F073
:1012400096E8862F70E060E02AF09A95660F771F87
:10125000881FDAF7880F9695879597F90895990F63
:101260000008550FAA0BE0E8FEEF16161706E80770
:10127000F907C0F012161306E407F50798F0621B91
:10128000730B840B950B39F40A2661F0232B242B66
:10129000252B21F408950A2609F4A140A6958FEF85
:1012A000811D811D089597F99F6780E870E060E0D7
:1012B00008959FEF80EC089500240A9416161706EF
:1012C00018060906089500240A9412161306140637
:1012D00005060895092E0394000C11F4882352F09A
:1012E000BB0F40F4BF2B11F460FF04C06F5F7F4F52
:1012F0008F4F9F4F089557FD9058440F551F59F039
:101300005F3F71F04795880F97FB991F61F09F3FF2
:1013100079F087950895121613061406551FF2CF1B
:101320004695F1DF08C0161617061806991FF1CF6B
:1013300086957105610508940895E894BB27662792
:101340007727CB0197F908950E942F0908F48FEFB2
:1013500008950E94BC090C946A090E945C0938F047
:101360000E94630920F0952311F00C9453090C940A
:10137000590911240C949E090E947B0970F3959FD2
:10138000C1F3950F50E0551F629FF001729FBB277C
:10139000F00DB11D639FAA27F00DB11DAA1F649F18
:1013A0006627B00DA11D661F829F2227B00DA11DCB
:1013B000621F739FB00DA11D621F839FA00D611D51
:1013C000221F749F3327A00D611D231F849F600D72
:1013D000211D822F762F6A2F11249F5750409AF09B
:1013E000F1F088234AF0EE0FFF1FBB1F661F771F27
:1013F000881F91505040A9F79E3F510580F00C94F2
:1014000053090C949E095F3FE4F3983ED4F386950C
:1014100077956795B795F795E7959F5FC1F7FE2B91
:10142000880F911D9695879597F908950E942F0929
:10143000880B990B0895A1E21A2EAA1BBB1BFD0174
:101440000DC0AA1FBB1FEE1FFF1FA217B307E407A3
:10145000F50720F0A21BB30BE40BF50B661F771FFB
:10146000881F991F1A9469F76095709580959095DB
:101470009B01AC01BD01CF010895EE0FFF1F059048
:0A148000F491E02D0994F894FFCFD9
:10148A00000000005302B301E001A0021102EF01C3
:10149A000302000000006504B301C102C0026E61CC
:1014AA006E00696E66006F76660050574D20534F86
:1014BA004C415220434841524745520050562076EB
:1014CA006F6C746167653A20004261747465727961
:1014DA003A20004368617267652043757272656ECF
:0414EA00743A200030
:00000001FF
